:100000000C9462000C948A000C948A000C948A0070
:100010000C948A000C948A000C948A000C948A0038
:100020000C948A000C948A000C948A000C948A0028
:100030000C948A000C948A000C948A000C948A0018
:100040000C94F2010C948A000C94C8000C948A0061
:100050000C948A000C948A000C948A000C948A00F8
:100060000C948A000C948A000000000024002700F1
:100070002A0000000000250028002B0000000000DE
:1000800023002600290004040404040404040202DA
:100090000202020203030303030301020408102007
:1000A0004080010204081020010204081020000012
:1000B0000007000201000003040600000000000029
:1000C0000000810111241FBECFEFD4E0DEBFCDBF01
:1000D00011E0A0E0B1E0E8EDF7E002C005900D927C
:1000E000A032B107D9F711E0A0E2B1E001C01D9242
:1000F000A63CB107E1F710E0C4ECD0E004C02297C1
:10010000FE010E94E603C23CD107C9F70E94C1006C
:100110000C94EA030C94000080E00E949C029093EF
:1001200021018093200181E00E949C029093230191
:100130008093220168E070E00E94800385E00E94C5
:10014000BA028091200190912101845F91402CF4AA
:1001500088EA91E060E071E004C088EA91E06CE038
:1001600071E00E94E701089588EA91E040E855E2D5
:1001700060E070E00E94050185E061E00E941303E9
:1001800008950E9462020E94B4000E948C00FDCF7C
:100190001F920F920FB60F9211242F933F934F93FC
:1001A0005F936F937F938F939F93AF93BF93EF93DF
:1001B000FF934091C600E091A401F091A501CF0109
:1001C000019660E870E00E9480039C018091A60186
:1001D0009091A7012817390739F0EC5DFE4F408355
:1001E0003093A5012093A401FF91EF91BF91AF91AE
:1001F0009F918F917F916F915F914F913F912F913F
:100200000F900FBE0F901F901895AF92BF92CF9294
:10021000DF92EF92FF920F931F93CF93DF936C01C6
:100220007A018B01DC011496AD90BC901597CB013F
:10023000BA0122E030E040E050E00E94B503205CCB
:100240003D4B404F5F4FCA01B901A80197010E9481
:10025000B503C901DA010197A109B109292F3A2F84
:100260004B2F552747FD5A950196A11DB11DE5015C
:100270002883E601EE81FF8181508083EA85FB853A
:10028000208141E050E0CA010E8402C0880F991F0E
:100290000A94E2F7282B2083EA85FB852081CA0196
:1002A0000F8402C0880F991F0A94E2F7282B20833D
:1002B000EA85FB858081088802C0440F551F0A9497
:1002C000E2F7842B8083DF91CF911F910F91FF90F4
:1002D000EF90DF90CF90BF90AF900895FC01A08584
:1002E000B18521898C9190E0022E02C09595879569
:1002F0000A94E2F780FFF6CF0484F585E02D608351
:1003000008958EE191E09093A9018093A80184E281
:1003100091E09093AB018093AA0185EC90E09093DB
:10032000AD018093AC0184EC90E09093AF01809399
:10033000AE0180EC90E09093B1018093B00181EC2C
:1003400090E09093B3018093B20186EC90E090939B
:10035000B5018093B40184E08093B60183E080937B
:10036000B70187E08093B80185E08093B9010895D3
:100370000F931F93CF93DF938C01EB0109C021965C
:10038000D801ED91FC910190F081E02DC801099513
:1003900068816623A1F7DF91CF911F910F91089596
:1003A0000F931F938C01DC01ED91FC910190F08182
:1003B000E02D6DE00995D801ED91FC910190F0815F
:1003C000E02DC8016AE009951F910F9108950F93E0
:1003D0001F938C010E94B801C8010E94D0011F9197
:1003E0000F9108951F920F920FB60F9211242F9321
:1003F0008F939F93AF93BF938091BA019091BB016C
:10040000A091BC01B091BD010196A11DB11D8093C9
:10041000BA019093BB01A093BC01B093BD01809140
:10042000BE019091BF01A091C001B091C101805067
:10043000904CAF4FBF4F8093BE019093BF01A093EC
:10044000C001B093C10127C08091BE019091BF014E
:10045000A091C001B091C10180589E43A040B0401E
:100460008093BE019093BF01A093C001B093C101DE
:100470008091C2019091C301A091C401B091C501C6
:100480000196A11DB11D8093C2019093C301A09359
:10049000C401B093C5018091BE019091BF01A091AC
:1004A000C001B091C10181589E43A040B04060F6A8
:1004B000BF91AF919F918F912F910F900FBE0F9091
:1004C0001F901895789484B5826084BD84B581604E
:1004D00084BD85B5826085BD85B5816085BDEEE64C
:1004E000F0E0808181608083E1E8F0E080818260DB
:1004F0008083808181608083E0E8F0E0808181609A
:100500008083E1EBF0E0808184608083E0EBF0E0C9
:10051000808181608083EAE7F0E08081846080836D
:100520008081826080838081816080838081806817
:1005300080831092C100089587709091190192955F
:10054000990F990F907C982B90937C0080917A0062
:10055000806480937A0080917A0086FDFCCF2091A0
:10056000780040917900942F80E030E0282B392BDF
:10057000C90108951F93CF93DF93182FEB0161E01A
:100580000E941303E12FF0E0E255FF4F8491833086
:1005900051F480918000806880938000D09389001E
:1005A000C09388003CC0843051F480918000806208
:1005B00080938000D0938B00C0938A0030C081303C
:1005C00039F4209729F184B5806884BDC7BD27C060
:1005D000823039F42097E1F084B5806284BDC8BDD3
:1005E0001EC0863041F48091B00080688093B000D6
:1005F000C093B30014C0873041F48091B000806292
:100600008093B000C093B4000AC0C038D1051CF478
:10061000812F60E002C0812F61E00E943303DF91EF
:10062000CF911F910895282F30E0C90186569F4F22
:10063000FC0194912A573F4FF9018491882391F04E
:10064000E82FF0E0EE0FFF1FE859FF4FA591B4919E
:10065000662329F48C91909589238C9308958C912D
:10066000892B8C930895482F50E0CA0182559F4FE3
:10067000FC012491CA0186569F4FFC0194914A5770
:100680005F4FFA0134913323D1F1222331F123302A
:1006900021F4809180008F7705C0243031F480915F
:1006A00080008F7D8093800018C0213019F484B5BC
:1006B0008F7704C0223021F484B58F7D84BD0DC0B6
:1006C000263021F48091B0008F7705C0273029F4BF
:1006D0008091B0008F7D8093B000E32FF0E0EE0FAB
:1006E000FF1FEE58FF4FA591B491662329F48C911A
:1006F000909589238C9308958C91892B8C930895E0
:1007000097FB092E07260AD077FD04D049D006D0E2
:1007100000201AF4709561957F4F0895F6F7909533
:1007200081959F4F0895A1E21A2EAA1BBB1BFD01C4
:100730000DC0AA1FBB1FEE1FFF1FA217B307E407C0
:10074000F50720F0A21BB30BE40BF50B661F771F18
:10075000881F991F1A9469F76095709580959095F8
:100760009B01AC01BD01CF01089597FB092E052621
:100770000ED057FD04D0D7DF0AD0001C38F45095B6
:100780004095309521953F4F4F4F5F4F0895F6F7B5
:1007900090958095709561957F4F8F4F9F4F0895ED
:1007A000AA1BBB1B51E107C0AA1FBB1FA617B70797
:1007B00010F0A61BB70B881F991F5A95A9F78095B3
:1007C0009095BC01CD010895EE0FFF1F0590F491A7
:0807D000E02D0994F894FFCF1D
:1007D8004573746120636C61726F210045737461A5
:1007E8002065736375726F210001000000006E01BF
:00000001FF
