:100000000C9462000C948A000C948A000C948A0070
:100010000C948A000C948A000C948A000C948A0038
:100020000C948A000C948A000C948A000C948A0028
:100030000C948A000C948A000C948A000C948A0018
:100040000C947E010C948A000C948A000C948A0013
:100050000C948A000C948A000C948A000C948A00F8
:100060000C948A000C948A000000000024002700F1
:100070002A0000000000250028002B0000000000DE
:1000800023002600290004040404040404040202DA
:100090000202020203030303030301020408102007
:1000A0004080010204081020010204081020000012
:1000B0000007000201000003040600000000000029
:1000C0000000DA0011241FBECFEFD8E0DEBFCDBFA5
:1000D00011E0A0E0B1E0E2EFF5E002C005900D9282
:1000E000A831B107D9F711E0A8E1B1E001C01D9234
:1000F000AF32B107E1F710E0C4ECD0E004C02297C2
:10010000FE010E94F302C23CD107C9F70E947701A9
:100110000C94F7020C940000FC01808590E0089597
:100120001F93CF93DF93EC0189850E947B02182FE8
:1001300088858117E9F00E94C601288139814A81AA
:100140005B81621B730B840B950B2C813D814E816F
:100150005F81621773078407950750F00E94C601FC
:10016000688379838A839B83188721E030E002C00B
:1001700020E030E0C901DF91CF911F910895FF92F7
:100180000F931F938C01F22EFC01448355836683E9
:1001900077830E94C601F801608371838283938311
:1001A0008F2D0E947B02F8018087F1861F910F91AD
:1001B000FF9008958CE191E044E150E060E070E050
:1001C000209100010E94BF0008950F931F93CF93C9
:1001D000DF93809100010E947B028CE191E00E94FC
:1001E00090008CE191E00E948C009C01009739F511
:1001F00080911A0190911B01892B09F580911601BC
:1002000090911701609114017091150101960E945F
:10021000CA02FC01909317018093160197FD08C054
:10022000EE0FFF1FEE5FFE4F808161E00E942E0205
:1002300081E090E090931B0180931A0107C0213068
:10024000310521F410921B0110921A0180911801BE
:100250000E947B02892BD1F48FEF9FEF90931701BF
:100260008093160102E011E0C0E0D0E008C0F80180
:10027000808160E00E942E0221960E5F1F4F8091C8
:10028000140190911501C817D9078CF3DF91CF9114
:100290001F910F9108950F931F93CF93DF93809138
:1002A000000160E00E940E028091180160E00E944F
:1002B0000E028091000161E00E942E0202E011E036
:1002C000C0E0D0E008C0F801808161E00E940E0229
:1002D00021960E5F1F4F8091140190911501C81750
:1002E000D9078CF3DF91CF911F910F9108950E9450
:1002F000D4010E944B010E94E500FDCF1F920F9296
:100300000FB60F9211242F933F938F939F93AF9328
:10031000BF9380912A0190912B01A0912C01B09163
:100320002D0130912E010196A11DB11D232F2D5FAE
:100330002D3720F02D570196A11DB11D20932E01C0
:1003400080932A0190932B01A0932C01B0932D014F
:100350008091260190912701A0912801B091290157
:100360000196A11DB11D8093260190932701A093B2
:100370002801B0932901BF91AF919F918F913F9137
:100380002F910F900FBE0F901F9018958FB7F89474
:1003900020912A0130912B0140912C0150912D0187
:1003A0008FBFB901CA010895789484B5826084BD75
:1003B00084B5816084BD85B5826085BD85B5816069
:1003C00085BDEEE6F0E0808181608083E1E8F0E0C9
:1003D000808182608083808181608083E0E8F0E0BA
:1003E000808181608083E1EBF0E0808184608083A4
:1003F000E0EBF0E0808181608083EAE7F0E08081DB
:10040000846080838081826080838081816080833A
:100410008081806880831092C1000895282F30E089
:10042000C90186569F4FFC0194912A573F4FF9010D
:100430008491882391F0E82FF0E0EE0FFF1FE85938
:10044000FF4FA591B491662329F48C91909589234F
:100450008C9308958C91892B8C930895482F50E0AC
:10046000CA0182559F4FFC012491CA0186569F4FB5
:10047000FC0194914A575F4FFA0134913323D1F133
:10048000222331F1233021F4809180008F7705C041
:10049000243031F4809180008F7D8093800018C0DB
:1004A000213019F484B58F7704C0223021F484B54B
:1004B0008F7D84BD0DC0263021F48091B0008F77F0
:1004C00005C0273029F48091B0008F7D8093B00063
:1004D000E32FF0E0EE0FFF1FEE58FF4FA591B49110
:1004E000662329F48C91909589238C9308958C919F
:1004F000892B8C930895682F70E0CB0182559F4F14
:10050000FC012491CB0186569F4FFC0144916A5710
:100510007F4FFB019491992319F420E030E038C01B
:10052000222331F1233021F4809180008F7705C0A0
:10053000243031F4809180008F7D8093800018C03A
:10054000213019F484B58F7704C0223021F484B5AA
:100550008F7D84BD0DC0263021F48091B0008F774F
:1005600005C0273029F48091B0008F7D8093B000C2
:10057000892F90E0880F991F84589F4FFC01A59107
:10058000B4918C9120E030E0842311F021E030E040
:10059000C901089597FB092E07260AD077FD04D0DC
:1005A0000CD006D000201AF4709561957F4F089505
:1005B000F6F7909581959F4F0895AA1BBB1B51E1BB
:1005C00007C0AA1FBB1FA617B70710F0A61BB70BC3
:1005D000881F991F5A95A9F780959095BC01CD0168
:1005E0000895EE0FFF1F0590F491E02D0994F89403
:0205F000FFCF3B
:1005F20006000E00010002000300040005000800CE
:0806020007000D000900FFFFD5
:00000001FF
