:100000000C9463000C942C0D0C94590D0C948B00E3
:100010000C948B000C948B000C948B000C948B0034
:100020000C948B000C948B000C948B000C948B0024
:100030000C948B000C948B000C948B000C948B0014
:100040000C94860D0C948B000C94050B0C948B0077
:100050000C948B000C948B000C948B000C948B00F4
:100060000C948B000C948B000000000024002700EF
:100070002A0000000000250028002B0000000000DE
:1000800023002600290004040404040404040202DA
:100090000202020203030303030301020408102007
:1000A0004080010204081020010204081020000012
:1000B0000007000201000003040600000000000029
:1000C0000000E901BE0B11241FBECFEFD4E0DEBF5C
:1000D000CDBF11E0A0E0B1E0E2E9F2E202C005909C
:1000E0000D92AC34B107D9F712E0ACE4B1E001C035
:1000F0001D92A032B107E1F710E0C6ECD0E004C0D9
:100100002297FE010E940C11C23CD107C9F70E9440
:10011000FE0A0C9447110C940000A0E0B0E0E3E963
:10012000F0E00C941811EC01A880B980CA80DB8043
:10013000A114B104C104D10441F484E2A82E89EDD4
:10014000B82E8BE5C82E87E0D82EC601B5012DE16B
:1001500033EF41E050E00E94DB1027EA31E440E059
:1001600050E00E9487107B018C01C601B5012DE192
:1001700033EF41E050E00E94DB10CA01B9012CEEE0
:1001800034EF4FEF5FEF0E9487106E0D7F1D801FD1
:10019000911F97FF04C06150704080409048688371
:1001A00079838A839B839B01AC015F77B901CA0184
:1001B000CDB7DEB7EAE00C9434110E948D000895AB
:1001C00081E491E00E948D00089560934101709355
:1001D000420180934301909344010895FC011082F1
:1001E0008FEF81830895EF92FF920F931F93CF9328
:1001F000DF93EC019B0177FF03C020E030E005C0F6
:10020000653B710514F024EB30E02983EA806B81B3
:1002100070E06E197109882777FD8095982F982FC7
:10022000872F762F662730E040E050E00E9487104D
:1002300024EB30E040E050E00E94DB10FF2400E0BF
:1002400010E0102F0F2DFE2CEE24E20EF31E041FE3
:10025000151FC801B70128E030E040E050E00E94DF
:10026000DB108881893029F430938900209388003D
:1002700006C08A3021F430938B0020938A00DF91EE
:10028000CF911F910F91FF90EF900895CF93DF933F
:10029000EC01FB01CB010997029710F080E054C0FC
:1002A000CA0160E170E00E94A6106A83C90160E1A2
:1002B00070E00E94A6106B83E8838FEF89838E2FF6
:1002C00060E00E94E10E888161E00E94C10E809191
:1002D0004C01882311F580914D018823F1F42FB74B
:1002E000F89482E0809380008AE18093810088EB1B
:1002F0009BE0909389008093880090938B0080937B
:100300008A0080E49CE99093870080938600809126
:100310006F00887F80936F002FBF8881893041F400
:1003200081E080934C01809180008F73806809C0C8
:100330008A3049F481E080934D01809180008F7C68
:1003400080628093800081E0DF91CF91089540E248
:1003500052E020E639E00E9446010895EF92FF92B4
:100360000F931F93CF93DF93EC01FA01E80FF91F6E
:10037000E081DA01A60FB71F20E030E040E050E056
:1003800091E0E92EF12C012D112D14C0EE2321F066
:100390008C91882341F403C08C91882321F02E296D
:1003A0003F29402B512BEE0CFF1C001F111F6150E9
:1003B00070401197C617D7074CF3EE2311F0209524
:1003C0003095C901DF91CF911F910F91FF90EF9070
:1003D00008958EE591E00E94EE00089584E061E0CA
:1003E0000E94C10E85E061E00E94C10E86E061E0DE
:1003F0000E94C10E87E061E00E94C10E8BE061E0C7
:100400000E94C10E83E061E00E94C10E0895EF9248
:10041000FF920F931F938DE061E00E94C10E8DE06B
:1004200060E00E94E10E82E090E00E94200E8DE0EC
:1004300061E00E94E10E85E090E00E94200E8DE0D8
:1004400060E00E94E10E8DE060E00E94C10E8DE050
:1004500061E020E432E44FE050E00E947D0F162F6F
:10046000072FF82EE92E609350017093510180936D
:1004700052019093530124E930E040E050E00E94A3
:10048000DB10209354013093550140935601509353
:100490005701612F702F8F2D9E2D2AE330E040E011
:1004A00050E00E94DB10BA012093580130935901AB
:1004B00040935A0170935B018EEF91E0A9010E9475
:1004C000EE0C1F910F91FF90EF9008958BE060E08C
:1004D00070E00E94680E83E060E070E00E94680EA9
:1004E00008950F931F93CF93DF93EC018B01660F59
:1004F000771FC80123E0880F991F2A95E1F7680F3D
:10050000791F8BE00E94680E82E390E0089FB001A3
:10051000099F700D189F700D112483E00E94680ED2
:1005200084E060914E010E94E10E60E080914E01F6
:1005300090914F01892B09F461E085E00E94E10E62
:1005400086E060914E010E94E10E60E080914E01D4
:1005500090914F01892B09F461E087E00E94E10E40
:10056000BE01882777FD8095982F0E94F60DDF91B8
:10057000CF911F910F9108950F931F93CF93DF9306
:10058000EC0182E390E0689F8001699F100D789FE5
:10059000100D11248BE0B8010E94680E83E0B801B1
:1005A0000E94680E84E060914E010E94E10E60E0BE
:1005B00080914E0190914F01892B09F461E085E013
:1005C0000E94E10E86E060914E010E94E10E60E023
:1005D00080914E0190914F01892B09F461E087E0F1
:1005E0000E94E10EBE01882777FD8095982F0E941A
:1005F000F60DDF91CF911F910F9108950F931F93E7
:10060000CF93DF93EC0181E090E090934F018093D2
:100610004E0182E390E0689F8001699F100D789FF2
:10062000100D11248BE0B8010E94680E83E0B80120
:100630000E94680E84E060914E010E94E10E60E02D
:1006400080914E0190914F01892B09F461E085E082
:100650000E94E10E86E060914E010E94E10E60E092
:1006600080914E0190914F01892B09F461E087E060
:100670000E94E10EBE01882777FD8095982F0E9489
:10068000F60DDF91CF911F910F9108950F931F9356
:10069000CF93DF93EC0110924F0110924E0182E351
:1006A00090E0689F8001699F100D789F100D1124C4
:1006B0008BE0B8010E94680E83E0B8010E94680ECA
:1006C00084E060914E010E94E10E60E080914E0155
:1006D00090914F01892B09F461E085E00E94E10EC1
:1006E00086E060914E010E94E10E60E080914E0133
:1006F00090914F01892B09F461E087E00E94E10E9F
:10070000BE01882777FD8095982F0E94F60DDF9116
:10071000CF911F910F910895EF92FF920F931F9326
:10072000CF93DF93EC017A0182E390E0689F800130
:10073000699F100D789F100D11248BE0B8010E9465
:10074000680E83E0B8010E94680E1E2D84E06E2DB5
:100750000E94E10E00E0EF2809F401E085E0602F3F
:100760000E94E10E86E0602F0E94E10E87E0612F7B
:100770000E94E10EBE01882777FD8095982F0E9488
:10078000F60DDF91CF911F910F91FF90EF9008959B
:10079000EF92FF920F931F93CF93DF932091580115
:1007A0003091590140915A0150915B01243131053A
:1007B000410551050CF099C0109279011092780111
:1007C0000E946602C0E0D0E08091580190915901EA
:1007D000A0915A01B0915B014497A105B1050CF0BD
:1007E00064C1CA30D10511F1219668EC70E080E057
:1007F00090E024EF31E040E050E00E9469107B017E
:100800008C0160E070E080E090E021E030E040E0CA
:1008100050E00E9469109B01AC01C70163E070E0E9
:10082000A9010E948C030E940702CECF81E090E0D4
:1008300063E070E00E94FE0260E070E080E090E023
:1008400021E030E040E050E00E9469106115710540
:100850008105910529F168EC70E080E090E020E9E5
:1008600031E040E050E00E9469109B01AC0164EF70
:1008700071E080E090E00E9469107B018C0162E0F1
:1008800070E080E090E024E030E040E050E00E9442
:1008900069109B01AC01C701B9010E94710205C139
:1008A00068EC70E080E090E020E931E040E050E06A
:1008B0000E9469109B01AC0164EF71E080E090E060
:1008C0000E9469107B018C0162E070E080E090E0A2
:1008D00024E030E040E050E00E9469109B01AC0150
:1008E000C701B9010E94BC02E0C0DA01C901459705
:1008F000A109B1094897A105B10508F0B3C060E0AE
:1009000070E080E090E021E030E040E050E00E94C4
:100910006910611571058105910509F454C062E300
:1009200070E080E090E028E730E040E050E00E9496
:1009300069107B018C0162E070E080E090E024E0CF
:1009400030E040E050E00E9469109B01AC01C7011B
:10095000B9010E947102C0915801D09159010E94C1
:1009600007029E01442737FD4095542F809158017E
:1009700090915901A0915A01B0915B012817390754
:100980004A075B076CF091C082E390E062E070E0A0
:100990000E947102C0915801D09159010E94070232
:1009A0009E01442737FD4095542F80915801909126
:1009B0005901A0915A01B0915B01281739074A07E4
:1009C0005B0714F372C062E370E080E090E028E718
:1009D00030E040E050E00E9469107B018C0162E051
:1009E00070E080E090E024E030E040E050E00E94E1
:1009F00069109B01AC01C701B9010E94BC022091A2
:100A000058013091590140915A0150915B01E9011F
:100A1000C901AA2797FDA095BA2F82179307A407AB
:100A2000B5076CF042C082E390E062E070E00E94A3
:100A3000BC02C0915801D09159010E9407029E0149
:100A4000442737FD4095542F8091580190915901CA
:100A5000A0915A01B0915B01281739074A075B073B
:100A600014F323C0809178019091790101969093BD
:100A700079018093780124363105410551051CF434
:100A800062E070E00EC025563040404050402133B7
:100A900031054105510518F064E070E002C063E0E3
:100AA00070E082E390E00E9446038091780190918B
:100AB00079014F970CF46CC0109279011092780173
:100AC00066E970E080E090E022EC31E040E050E048
:100AD0000E946910DC01CB0163E070E00E94FE021D
:100AE00060E070E080E090E021E030E040E050E045
:100AF0000E946910611571058105910529F168EC65
:100B000070E080E090E020E931E040E050E00E94B9
:100B100069109B01AC0166E970E080E090E00E9402
:100B200069107B018C0162E070E080E090E024E0DD
:100B300030E040E050E00E9469109B01AC01C70129
:100B4000B9010E94710224C068EC70E080E090E07E
:100B500020E931E040E050E00E9469109B01AC01C7
:100B600066E970E080E090E00E9469107B018C01F2
:100B700062E070E080E090E024E030E040E050E0AF
:100B80000E9469109B01AC01C701B9010E94BC021F
:100B9000DF91CF911F910F91FF90EF9008950E94E8
:100BA00007020E94C8030895BC018EE591E00E94EF
:100BB000F3006FE070E080E090E00E94F60D089591
:100BC0006CED75E080E090E00E94F60D84EA96E01E
:100BD00064E070E00E9446038CEF98E064E070E00F
:100BE0000E94FE0280ED97E063E070E041E050E09B
:100BF0000E948C038CED95E064E070E00E94FE02A0
:100C00000E9466026CED75E080E090E00E94F60DB7
:100C100084EB90E00E94D40568EE73E080E090E001
:100C20000E94F60D8AE590E00E94D40568EE73E01C
:100C300080E090E00E94F60D80E090E00E94D405F4
:100C400068EE73E080E090E00E94F60D8AE590E0A7
:100C50000E94D40580ED97E064E070E00E944603B6
:100C60000E94660284EB90E00E94D40568EE73E077
:100C700080E090E00E94F60D80E090E00E94D405B4
:100C800068EE73E080E090E00E94F60D8AE590E067
:100C90000E94D40568EE73E080E090E00E94F60DBB
:100CA00088EB9BE063E070E041E050E00E948C0341
:100CB0000E94660288EB9BE063E070E040E050E059
:100CC0000E948C030E94660284EB90E00E94D4058F
:100CD00068EE73E080E090E00E94F60D8AE590E017
:100CE0000E94D40568EE73E080E090E00E94F60D6B
:100CF00080E090E00E94D4058AE590E00E94D4054F
:100D000088EB9BE063E070E041E050E00E948C03E0
:100D10000E94660288EB9BE063E070E040E050E0F8
:100D20000E948C030E94660284EB90E00E94D4052E
:100D300064EF71E080E090E00E94F60D8AE590E0BB
:100D40000E94D40564EF71E080E090E00E94F60D0F
:100D500080E090E00E94D40568EE73E080E090E0CF
:100D60000E94F60D80ED97E063E070E00E9446037C
:100D70000E94660284EB90E00E94D40564EF71E06B
:100D800080E090E00E94F60D8AE590E00E94D40594
:100D900064EF71E080E090E00E94F60D80E090E06A
:100DA0000E94D4056CED75E080E090E00E94F60DA5
:100DB00084EA96E064E070E00E9446038CEF98E0DD
:100DC00064E070E00E94FE0280ED97E063E070E076
:100DD00041E050E00E948C0380ED97E064E070E019
:100DE0000E94FE020E94660260ED77E080E090E0E3
:100DF0000E94F60D80ED97E063E070E040E050E087
:100E00000E948C0384EB90E00E94D40568EE73E0AE
:100E100080E090E00E94F60D8AE590E00E94D40503
:100E200068EE73E080E090E00E94F60D80E090E0D4
:100E30000E94D40568EE73E080E090E00E94F60D19
:100E40008AE590E00E94D40580ED97E063E070E0D1
:100E500041E050E00E948C0384EB90E00E94D405B6
:100E600064EF71E080E090E00E94F60D80E090E099
:100E70000E94D40564EF71E080E090E00E94F60DDE
:100E80008AE590E00E94D40568EE73E080E090E08F
:100E90000E94F60D88EB9BE063E070E041E050E0DB
:100EA0000E948C030E94660288EB9BE063E070E086
:100EB00040E050E00E948C030E94660284EB90E0C8
:100EC0000E94D40568EE73E080E090E00E94F60D89
:100ED0008AE590E00E94D40568EE73E080E090E03F
:100EE0000E94F60D80E090E00E94D4058AE590E033
:100EF0000E94D40588EB9BE063E070E041E050E0A5
:100F00000E948C030E94660288EB9BE063E070E025
:100F100040E050E00E948C030E94660284EB90E067
:100F20000E94D40564EF71E080E090E00E94F60D2D
:100F30008AE590E00E94D40564EF71E080E090E0E3
:100F40000E94F60D80E090E00E94D40568EE73E008
:100F500080E090E00E94F60D80ED97E063E070E0A5
:100F60000E9446030E94660280ED97E063E070E015
:100F70000E94FE020E94660284EB90E00E94D4056B
:100F800064EF71E080E090E00E94F60D8AE590E069
:100F90000E94D40564EF71E080E090E00E94F60DBD
:100FA00080E090E00E94D40564EF71E080E090E082
:100FB0000E94F60D8AE590E00E94D40560E072EC94
:100FC0008BEE9BE00E94F60D08950F931F938CE02B
:100FD00060E00E94E10E009172011091730188E0BF
:100FE0000E942E0FF801EE59FE4F80830F5F1F4FB6
:100FF00010937301009372018CE061E00E94E10E96
:101000008091720190917301409761F58EEF91E0AC
:101010006BE071E00E94240C109273011092720137
:1010200080E090E067E070E042E651E00E94AE01AF
:10103000909375018093740188E090E06FE070E018
:1010400042E651E00E94AE019093770180937601D1
:1010500080E090E0FC01EE59FE4F10820196803155
:101060009105C1F71F910F91089580E065EE77E03B
:1010700043E050E00E94090D88E060E00E94C10E4C
:101080008CE061E00E94C10E08956F927F928F9272
:101090009F92AF92BF92CF92DF92EF92FF920F9307
:1010A0001F938091740190917501892B81F4809137
:1010B000760190917701892B51F48BE060E070E02C
:1010C0000E94680E83E060E070E00E94680E8091EC
:1010D000760190917701181619062CF410924F01A1
:1010E00010924E0108C0892B31F081E090E090937E
:1010F0004F0180934E0184E060914E010E94E10E09
:1011000060E080914E0190914F01892B09F461E0DC
:1011100085E00E94E10E86E060914E010E94E10EA2
:1011200060E080914E0190914F01892B09F461E0BC
:1011300087E00E94E10E80917601909177010097FF
:1011400009F454C0609174017091750161157105C5
:1011500009F44CC000D000D0EDB7FEB731969B012A
:1011600077FF03C0309521953F4FB901882777FD60
:101170008095982F2FEF30E040E050E020833183BE
:101180004283538320E030E040E050E0AEE1EA2EBD
:10119000F12C012D112DAA24BB2465010E94FE0F04
:1011A000162F072F0F900F900F900F9080917401C2
:1011B0009091750199232CF0CB0162E070E00E94C0
:1011C000A6108BE00E94680E8091740190917501C9
:1011D00097FF08C0812F902F62E070E00E94A61058
:1011E000162F072F83E0612F702F61C000D000D031
:1011F000EDB7FEB731969C0197FF03C0309521955E
:101200003F4FB901882777FD8095982F2FEF30E069
:1012100040E050E0208331834283538320E030E07C
:1012200040E050E0FEE1EF2EF12C012D112DAA241B
:10123000BB2465010E94FE0F9B01AC010F900F9033
:101240000F900F908BE0B9010E94680E00D000D083
:10125000EDB7FEB73196209176013091770137FFD7
:1012600003C0309521953F4FB901882777FD8095C0
:10127000982F2FEF30E040E050E02083318342830D
:10128000538320E030E040E050E0EEE1EE2EF12C20
:10129000012D112DAA24BB2465010E94FE0F9B0184
:1012A000AC010F900F900F900F9083E0B9010E9456
:1012B000680E8091760190917701892B09F02EC1FB
:1012C0008091740190917501009709F427C1692FED
:1012D000772767FD70956627770F661F77277093CE
:1012E0004F0160934E0184E00E94E10E60E0809126
:1012F0004E0190914F01892B09F461E086E00E9434
:10130000E10E60E080914E0190914F01892B09F42C
:1013100061E085E00E94E10E87E060914E010E944D
:10132000E10E8091740190917501181619060CF068
:1013300073C08EEF91E060E271E00E94F50B00D087
:1013400000D06091740170917501882777FD8095B8
:10135000982F0FEF602E712C812C912CEDB7FEB7DA
:10136000618272828382948220E030E040E050E02B
:101370001EE1E12EF12C012D112DB8E2AB2EB12C86
:10138000C12CD12C0E94FE0FAB01BC010F900F901D
:101390000F900F908EEF91E00E94EE0C00D000D0E5
:1013A0006091740170917501882777FD8095982F61
:1013B000EDB7FEB7618272828382948220E030E0D2
:1013C00040E050E00E94FE0F9B01AC010F900F9097
:1013D0000F900F908BE0B9010E94680E00D000D0F2
:1013E0006091740170917501882777FD8095982F21
:1013F000EDB7FEB7618272828382948220E030E092
:1014000040E050E00E94FE0F9B01AC010F900F9056
:101410000F900F9083E07FC08EEF91E06CE271E05F
:101420000E94F50B00D000D0EDB7FEB731962091A9
:1014300074013091750137FF03C0309521953F4FFE
:10144000B901882777FD8095982FAFEF6A2E712C10
:10145000812C912C608271828282938220E030E024
:1014600040E050E0FEE1EF2EF12C012D112DE8E2DD
:10147000AE2EB12CC12CD12C0E94FE0FAB01BC01B1
:101480000F900F900F900F908EEF91E00E94EE0C56
:1014900000D000D0609174017091750170956195D4
:1014A0007F4F882777FD8095982FEDB7FEB7618233
:1014B00072828382948220E030E040E050E00E941B
:1014C000FE0F9B01AC010F900F900F900F9083E0E7
:1014D000B9010E94680E00D000D060917401709133
:1014E0007501709561957F4F882777FD8095982FBE
:1014F000EDB7FEB7618272828382948220E030E091
:1015000040E050E00E94FE0F9B01AC010F900F9055
:101510000F900F908BE0B9010E94680E8EEF91E062
:1015200067E371E00E94F50B6091740170917501A1
:101530008EEF91E00E94F90C8EEF91E06CE371E088
:101540000E94F50B60917601709177018EEF91E02A
:101550000E94F90C68EC70E080E090E00E94F60DCB
:101560001F910F91FF90EF90DF90CF90BF90AF90C1
:101570009F908F907F906F90089583E10E942E0F2F
:10158000892BA1F483E10E942E0F892BD9F380913E
:101590005C0190915D01019690935D0180935C01E7
:1015A000049721F410925D0110925C0180915C011E
:1015B00090915D018330910519F40E94E005089532
:1015C0008230910519F40E94CF050895019711F416
:1015D0000E94450808950E94EE010E9435088EE59C
:1015E00091E06AE070E00E94A7018EEF91E040E890
:1015F00055E260E070E00E94420B08950E942E0EBA
:101600000E94EB0A0E94BD0AFDCF1F920F920FB6F7
:101610000F9211242F933F934F935F936F937F9378
:101620008F939F93AF93BF93EF93FF934091C60027
:10163000E091FA01F091FB01CF01019660E870E0C2
:101640000E94A6109C018091FC019091FD01281739
:10165000390739F0E658FE4F40833093FB01209361
:10166000FA01FF91EF91BF91AF919F918F917F917F
:101670006F915F914F913F912F910F900FBE0F90FF
:101680001F901895AF92BF92CF92DF92EF92FF9288
:101690000F931F93CF93DF936C017A018B01DC01D1
:1016A0001496AD90BC901597CB01BA0122E030E0C2
:1016B00040E050E00E94DB10205C3D4B404F5F4F0C
:1016C000CA01B901A80197010E94DB10C901DA0122
:1016D0000197A109B109292F3A2F4B2F552747FD13
:1016E0005A950196A11DB11DE5012883E601EE8101
:1016F000FF8181508083EA85FB85208141E050E0B5
:10170000CA010E8402C0880F991F0A94E2F7282BA1
:101710002083EA85FB852081CA010F8402C0880FDF
:10172000991F0A94E2F7282B2083EA85FB858081A4
:10173000088802C0440F551F0A94E2F7842B808367
:10174000DF91CF911F910F91FF90EF90DF90CF909D
:10175000BF90AF900895FC01A085B18521898C913F
:1017600090E0022E02C0959587950A94E2F780FFDB
:10177000F6CF0484F585E02D6083089589E491E037
:101780009093FF018093FE018AE791E0909301021C
:101790008093000285EC90E0909303028093020214
:1017A00084EC90E0909305028093040280EC90E03A
:1017B000909307028093060281EC90E090930902D7
:1017C0008093080286EC90E090930B0280930A02CB
:1017D00084E080930C0283E080930D0287E0809385
:1017E0000E0285E080930F0208950F931F93CF930D
:1017F000DF938C01EB0109C02196D801ED91FC919A
:101800000190F081E02DC801099568816623A1F758
:10181000DF91CF911F910F9108950F931F938C012A
:10182000DC01ED91FC910190F081E02D6DE00995D6
:10183000D801ED91FC910190F081E02DC8016AE0A2
:1018400009951F910F9108950F931F938C010E948A
:10185000F50BC8010E940D0C1F910F9108952F9256
:101860003F924F925F926F927F928F929F92AF9230
:10187000BF92CF92DF92EF92FF920F931F93DF936D
:10188000CF93CDB7DEB7A0970FB6F894DEBF0FBEEB
:10189000CDBF1C016A017B01411551056105710530
:1018A00049F4DC01ED91FC910190F081E02D60E3C1
:1018B000099554C0882499245401422E5524662445
:1018C000772401E010E00C0F1D1F080D191DC70142
:1018D000B601A30192010E94B910F8016083089437
:1018E000811C911CA11CB11CC701B601A30192016E
:1018F0000E94B910C901DA016C017D01C114D10443
:10190000E104F104F1F681E0E82EF12CEC0EFD1E6D
:10191000E80CF91C3E010894611C711CD501C4013E
:101920000197A109B1096C01C818D90814C0F601C2
:10193000EE0DFF1D60816A3010F4605D01C0695CCE
:10194000D101ED91FC910190F081E02DC10109954B
:101950000894E108F1086E147F0449F7A0960FB6C9
:10196000F894DEBF0FBECDBFCF91DF911F910F91D5
:10197000FF90EF90DF90CF90BF90AF909F908F90AF
:101980007F906F905F904F903F902F900895EF92CF
:10199000FF920F931F93CF93DF93EC017A018B019A
:1019A00077FF0FC0E881F9810190F081E02D6DE2B1
:1019B000099510950095F094E094E11CF11C011D2F
:1019C000111DCE01B801A7012AE00E942F0CDF9162
:1019D000CF911F910F91FF90EF9008950F931F9358
:1019E0008C010E94C70CC8010E940D0C1F910F9121
:1019F00008950F931F938C01AB01662757FD6095E7
:101A0000762F0E94C70CC8010E940D0C1F910F91E8
:101A10000895823000F5E82FF0E0EE0FFF1FE05F41
:101A2000FD4F71836083882319F08130A1F408C0D1
:101A3000809169008C7F842B80936900E89A0895D7
:101A400080916900440F551F440F551F837F842BDD
:101A500080936900E99A08951F920F920FB60F9232
:101A600011242F933F934F935F936F937F938F93A3
:101A70009F93AF93BF93EF93FF9380911002909148
:101A80001102892B29F0E0911002F09111020995C1
:101A9000FF91EF91BF91AF919F918F917F916F9146
:101AA0005F914F913F912F910F900FBE0F901F901C
:101AB00018951F920F920FB60F9211242F933F93F8
:101AC0004F935F936F937F938F939F93AF93BF9346
:101AD000EF93FF938091120290911302892B29F0CA
:101AE000E0911202F09113020995FF91EF91BF91DD
:101AF000AF919F918F917F916F915F914F913F91A6
:101B00002F910F900FBE0F901F9018951F920F925C
:101B10000FB60F9211242F938F939F93AF93BF9380
:101B20008091140290911502A0911602B0911702B3
:101B30000196A11DB11D8093140290931502A093EC
:101B40001602B09317028091180290911902A09189
:101B50001A02B0911B028050904CAF4FBF4F809340
:101B6000180290931902A0931A02B0931B0227C087
:101B70008091180290911902A0911A02B0911B0253
:101B800080589E43A040B040809318029093190261
:101B9000A0931A02B0931B0280911C0290911D0227
:101BA000A0911E02B0911F020196A11DB11D80934C
:101BB0001C0290931D02A0931E02B0931F028091FD
:101BC000180290911902A0911A02B0911B0281583B
:101BD0009E43A040B04060F6BF91AF919F918F911E
:101BE0002F910F900FBE0F901F901895EF92FF92BC
:101BF0000F931F937B018C018FB7F89440911C02C7
:101C000050911D0260911E0270911F028FBF2FB76D
:101C1000F89480911C0290911D02A0911E02B09137
:101C20001F022FBF841B950BA60BB70BE816F906F6
:101C30000A071B0760F71F910F91FF90EF9008951F
:101C4000019759F0FC01EE0FFF1FEE0FFF1F3297B7
:101C50008FB7F8943197F1F78FBF0895789484B5D2
:101C6000826084BD84B5816084BD85B5826085BD98
:101C700085B5816085BDEEE6F0E08081816080837E
:101C8000E1E8F0E0808182608083808181608083F0
:101C9000E0E8F0E0808181608083E1EBF0E080812A
:101CA00084608083E0EBF0E0808181608083EAE7FC
:101CB000F0E0808184608083808182608083808185
:101CC000816080838081806880831092C100089544
:101CD0001F93CF93DF93182FEB0161E00E94C10E99
:101CE000E12FF0E0E255FF4F8491833051F4809171
:101CF0008000806880938000D0938900C093880022
:101D00003CC0843051F480918000806280938000D8
:101D1000D0938B00C0938A0030C0813039F4209773
:101D200029F184B5806884BDC7BD27C0823039F4ED
:101D30002097E1F084B5806284BDC8BD1EC08630A6
:101D400041F48091B00080688093B000C093B300EC
:101D500014C0873041F48091B00080628093B0005D
:101D6000C093B4000AC0C038D1051CF4812F60E0D4
:101D700002C0812F61E00E94E10EDF91CF911F919F
:101D80000895282F30E0C90186569F4FFC01949199
:101D90002A573F4FF9018491882391F0E82FF0E012
:101DA000EE0FFF1FE859FF4FA591B491662329F468
:101DB0008C91909589238C9308958C91892B8C9389
:101DC0000895482F50E0CA0182559F4FFC0124918D
:101DD000CA0186569F4FFC0194914A575F4FFA0102
:101DE00034913323D1F1222331F1233021F4809136
:101DF00080008F7705C0243031F4809180008F7D82
:101E00008093800018C0213019F484B58F7704C006
:101E1000223021F484B58F7D84BD0DC0263021F49D
:101E20008091B0008F7705C0273029F48091B000F1
:101E30008F7D8093B000E32FF0E0EE0FFF1FEE5890
:101E4000FF4FA591B491662329F48C919095892335
:101E50008C9308958C91892B8C930895682F70E052
:101E6000CB0182559F4FFC012491CB0186569F4F99
:101E7000FC0144916A577F4FFB019491992319F417
:101E800020E030E038C0222331F1233021F480916A
:101E900080008F7705C0243031F4809180008F7DE1
:101EA0008093800018C0213019F484B58F7704C066
:101EB000223021F484B58F7D84BD0DC0263021F4FD
:101EC0008091B0008F7705C0273029F48091B00051
:101ED0008F7D8093B000892F90E0880F991F8458E0
:101EE0009F4FFC01A591B4918C9120E030E08423B8
:101EF00011F021E030E0C9010895DF92EF92FF92E6
:101F00000F931F93A82FB0E0CD0186569F4FFC0181
:101F1000D490AA57BF4FFD018491662311F490E03D
:101F200001C09D2D6FEFE62E6FEFF62E6FEF062F9F
:101F30006FE0162FE222F32204231523682F70E0AE
:101F4000660F771F64587F4F20E030E040E050E09C
:101F5000FB01A591B4910AC02E153F05400751071A
:101F600009F440C02F5F3F4F4F4F5F4F8C918D2141
:101F7000891791F30AC02E153F054007510791F1CB
:101F80002F5F3F4F4F4F5F4F03C0FB01A591B491AF
:101F90008C918D21891779F720E030E040E050E006
:101FA000FB01A591B49104C02F5F3F4F4F4F5F4F8E
:101FB0008C918D218917C1F3CA01B9012AE030E063
:101FC00040E050E00E9487109B01AC01205F3F4F32
:101FD0004F4F5F4F84E056954795379527958A95E3
:101FE000D1F704C020E030E040E050E0B901CA0180
:101FF0001F910F91FF90EF90DF9008952F923F92E5
:102000004F925F926F927F928F929F92AF92BF9208
:10201000CF92DF92EF92FF920F931F93DF93CF93B4
:10202000CDB7DEB73B014C0119012A016D897E89CC
:102030008F89988D6A197B098C099D09621A730A28
:10204000840A950AA40193010E948710E218F308FC
:1020500004091509A80197010E94DB102A0D3B1DF8
:102060004C1D5D1DB901CA01CF91DF911F910F91E8
:10207000FF90EF90DF90CF90BF90AF909F908F90A8
:102080007F906F905F904F903F902F900895EF92C8
:10209000FF920F931F937B018C01611571058105E0
:1020A000910529F420E030E040E050E00BC00E94B0
:1020B000E000A80197010E94DB10AC01CB01DA011E
:1020C0009C01AD01B901CA011F910F91FF90EF90E2
:1020D0000895EF92FF920F931F937B018C0162177B
:1020E00073078407950764F4261B370B480B590BBD
:1020F000CA01B9010E944710E60EF71E081F191FFA
:10210000B701C8011F910F91FF90EF900895629F52
:10211000D001739FF001829FE00DF11D649FE00DDF
:10212000F11D929FF00D839FF00D749FF00D659F40
:10213000F00D9927729FB00DE11DF91F639FB00D3F
:10214000E11DF91FBD01CF011124089597FB092E50
:1021500007260AD077FD04D049D006D000201AF413
:10216000709561957F4F0895F6F7909581959F4FF3
:102170000895A1E21A2EAA1BBB1BFD010DC0AA1FC8
:10218000BB1FEE1FFF1FA217B307E407F50720F0E0
:10219000A21BB30BE40BF50B661F771F881F991F5B
:1021A0001A9469F760957095809590959B01AC01A4
:1021B000BD01CF01089597FB092E05260ED057FDCE
:1021C00004D0D7DF0AD0001C38F4509540953095E4
:1021D00021953F4F4F4F5F4F0895F6F790958095AB
:1021E000709561957F4F8F4F9F4F0895AA1BBB1B22
:1021F00051E107C0AA1FBB1FA617B70710F0A61B07
:10220000B70B881F991F5A95A9F780959095BC0127
:10221000CD010895EE0FFF1F0590F491E02D099474
:102220002F923F924F925F926F927F928F929F92E6
:10223000AF92BF92CF92DF92EF92FF920F931F93D4
:10224000CF93DF93CDB7DEB7CA1BDB0B0FB6F89485
:10225000DEBF0FBECDBF09942A88398848885F84C5
:102260006E847D848C849B84AA84B984C884DF8036
:10227000EE80FD800C811B81AA81B981CE0FD11D1A
:102280000FB6F894DEBF0FBECDBFED010895F894F0
:02229000FFCF7E
:10229200536572766F20706F733A00436865676F9B
:1022A20075204E6F766F73203220627974657300E9
:1022B200476972616E646F20783E300047697261CF
:1022C2006E646F203C300078203D200079203D2054
:0C22D200000100000000000000AB0B0049
:00000001FF
