:100000000C9462000C948A000C948A000C948A0070
:100010000C948A000C948A000C948A000C948A0038
:100020000C948A000C948A000C948A000C948A0028
:100030000C948A000C948A000C948A000C948A0018
:100040000C94F1000C948A000C9428020C948A0001
:100050000C948A000C948A000C948A000C948A00F8
:100060000C948A000C948A000000000024002700F1
:100070002A0000000000250028002B0000000000DE
:1000800023002600290004040404040404040202DA
:100090000202020203030303030301020408102007
:1000A0004080010204081020010204081020000012
:1000B0000007000201000003040600000000000029
:1000C0000000710311241FBECFEFD8E0DEBFCDBF0B
:1000D00011E0A0E0B1E0E6EBFAE002C005900D927D
:1000E000A033B107D9F711E0A0E3B1E001C01D9240
:1000F000A03DB107E1F710E0C4ECD0E004C02297C6
:10010000FE010E945505C23CD107C9F70E94EA00D2
:100110000C9459050C940000CF92DF92EF92FF925D
:100120000F931F9385E00E949D018C018091230114
:1001300061E00E94DB016801EE24D7FCE094FE2C14
:10014000C701B6010E9439018091230160E00E943D
:10015000DB01C701B6010E9439018DEBE82E81E079
:10016000F82EC70160E071E00E94E203C701B80108
:100170000E94C0041F910F91FF90EF90DF90CF90ED
:1001800008950F931F93CF93DF9385E060E00E9463
:10019000BB010FE011E0C0E0D0E008C0F8018081B1
:1001A00061E00E94BB0121960E5F1F4F80912101EB
:1001B00090912201C817D9078CF38DEB91E040E8AC
:1001C00055E260E070E00E946502DF91CF911F91DF
:1001D0000F9108950E9463010E94C1000E948C004B
:1001E000FDCF1F920F920FB60F9211242F933F93C2
:1001F0008F939F93AF93BF9380913401909135017A
:10020000A0913601B0913701309138010196A11DBE
:10021000B11D232F2D5F2D3720F02D570196A11DE5
:10022000B11D209338018093340190933501A09340
:100230003601B09337018091300190913101A09146
:100240003201B09133010196A11DB11D809330019F
:1002500090933101A0933201B0933301BF91AF91DC
:100260009F918F913F912F910F900FBE0F901F90F4
:100270001895EF92FF920F931F937B018C018FB71C
:10028000F89440913401509135016091360170919C
:1002900037018FBF2FB7F8948091340190913501C9
:1002A000A0913601B09137012FBF841B950BA60B8F
:1002B000B70BE816F9060A071B0760F71F910F91A5
:1002C000FF90EF900895789484B5826084BD84B5E2
:1002D000816084BD85B5826085BD85B5816085BD41
:1002E000EEE6F0E0808181608083E1E8F0E08081EB
:1002F00082608083808181608083E0E8F0E080819B
:1003000081608083E1EBF0E0808184608083E0EBBA
:10031000F0E0808181608083EAE7F0E080818460A2
:1003200080838081826080838081816080838081FE
:10033000806880831092C10008958F70909125018C
:100340009295990F990F907C982B90937C008091B7
:100350007A00806480937A0080917A0086FDFCCFD9
:100360002091780040917900942F80E030E0282B94
:10037000392BC9010895282F30E0C90186569F4FB7
:10038000FC0194912A573F4FF9018491882391F001
:10039000E82FF0E0EE0FFF1FE859FF4FA591B49151
:1003A000662329F48C91909589238C9308958C91E0
:1003B000892B8C930895482F50E0CA0182559F4F96
:1003C000FC012491CA0186569F4FFC0194914A5723
:1003D0005F4FFA0134913323D1F1222331F12330DD
:1003E00021F4809180008F7705C0243031F4809112
:1003F00080008F7D8093800018C0213019F484B56F
:100400008F7704C0223021F484B58F7D84BD0DC068
:10041000263021F48091B0008F7705C0273029F471
:100420008091B0008F7D8093B000E32FF0E0EE0F5D
:10043000FF1FEE58FF4FA591B491662329F48C91CC
:10044000909589238C9308958C91892B8C93089592
:100450001F920F920FB60F9211242F933F934F9339
:100460005F936F937F938F939F93AF93BF93EF931C
:10047000FF934091C600E091B901F091BA01CF011C
:10048000019660E870E00E94EF049C018091BB013E
:100490009091BC012817390739F0E75CFE4F408383
:1004A0003093BA012093B901FF91EF91BF91AF91C1
:1004B0009F918F917F916F915F914F913F912F917C
:1004C0000F900FBE0F901F9018955F926F927F92C2
:1004D0008F929F92AF92BF92CF92DF92EF92FF9254
:1004E0000F931F93CF93DF93EC013A014B014134FB
:1004F00082E458078FE0680780E078070CF07FC03F
:1005000060E874E88EE190E0A40193010E94240564
:100510002150304040405040CA01B90122E030E053
:1005200040E050E00E94240559016A01A6019501AE
:10053000209530954095509594E0220F331F441F2D
:10054000551F9A95D1F760E074E284EF90E00E9425
:100550002405CA01B9012FEF30E040E050E00E94CD
:10056000D004A40193010E942405C90181509F4F2A
:10057000181619061CF4522E5A9403C0552453948D
:10058000521A60E079E08DE390E0A40193010E94AB
:1005900024052150304040405040CA01B90122E0BA
:1005A00030E040E050E00E942405209530954095D1
:1005B000509583E0220F331F441F551F8A95D1F7B2
:1005C00060E074E284EF90E00E942405CA01B90162
:1005D0002FEF30E040E050E00E94D004A4019301EE
:1005E0000E942405C90181509F4F181619061CF45A
:1005F000822F815002C081E0821B851500F5E885BD
:10060000F98581E090E00A8802C0880F991F0A945A
:10061000E2F7808360E079E08DE390E0A40193014C
:100620000E9424052150304040405040CA01B90189
:1006300022E030E040E050E00E94240504C0E8855C
:10064000F98510829501EC81FD813083EE81FF8177
:100650002083EA85FB85208141E050E0CA010E84B9
:1006600002C0880F991F0A94E2F7282B2083EA859D
:10067000FB852081CA010F8402C0880F991F0A944C
:10068000E2F7282B2083EA85FB858081088802C059
:10069000440F551F0A94E2F7842B8083DF91CF919A
:1006A0001F910F91FF90EF90DF90CF90BF90AF9090
:1006B0009F908F907F906F905F900895FC01A08530
:1006C000B18521898C9190E0022E02C09595879585
:1006D0000A94E2F780FFF6CF0484F585E02D60836D
:1006E00008958AE291E09093BE018093BD0189E371
:1006F00091E09093C0018093BF0185EC90E09093CE
:10070000C2018093C10184EC90E09093C401809376
:10071000C30180EC90E09093C6018093C50181EC09
:1007200090E09093C8018093C70186EC90E090938D
:10073000CA018093C90184E08093CB0183E0809358
:10074000CC0187E08093CD0185E08093CE0181E0EC
:100750008093CF0108950F931F93CF93DF938C0164
:10076000EB0109C02196D801ED91FC910190F08137
:10077000E02DC801099568816623A1F7DF91CF912B
:100780001F910F910895EF92FF920F931F93CF93B4
:10079000DF938C017B01EA010CC0D7016D917D01D3
:1007A000D801ED91FC910190F081E02DC8010995EF
:1007B0002197209791F7DF91CF911F910F91FF9093
:1007C000EF900895DC01ED91FC910280F381E02D22
:1007D000099508950F931F938C01DC01ED91FC9115
:1007E0000190F081E02D6DE00995D801ED91FC912B
:1007F0000190F081E02DC8016AE009951F910F91E9
:1008000008952F923F924F925F926F927F928F92B4
:100810009F92AF92BF92CF92DF92EF92FF920F938F
:100820001F93DF93CF93CDB7DEB7A0970FB6F894A1
:10083000DEBF0FBECDBF1C016A017B014115510512
:100840006105710549F4DC01ED91FC910190F081A5
:10085000E02D60E3099554C0882499245401422E68
:1008600055246624772401E010E00C0F1D1F080DAD
:10087000191DC701B601A30192010E940205F801EA
:1008800060830894811C911CA11CB11CC701B60196
:10089000A30192010E940205C901DA016C017D01E8
:1008A000C114D104E104F104F1F681E0E82EF12C49
:1008B000EC0EFD1EE80CF91C3E010894611C711C35
:1008C000D501C4010197A109B1096C01C818D90863
:1008D00014C0F601EE0DFF1D60816A3010F4605DFA
:1008E00001C0695CD101ED91FC910190F081E02D96
:1008F000C10109950894E108F1086E147F0449F7D5
:10090000A0960FB6F894DEBF0FBECDBFCF91DF919A
:100910001F910F91FF90EF90DF90CF90BF90AF901D
:100920009F908F907F906F905F904F903F902F900F
:100930000895EF92FF920F931F93CF93DF93EC01F3
:100940007A018B0177FF0FC0E881F9810190F08176
:10095000E02D6DE2099510950095F094E094E11C6E
:10096000F11C011D111DCE01B801A7012AE00E9452
:100970000104DF91CF911F910F91FF90EF900895A7
:100980000F931F938C01AB01662757FD6095762F5F
:100990000E949904C8010E94EA031F910F910895D3
:1009A000629FD001739FF001829FE00DF11D649F53
:1009B000E00DF11D929FF00D839FF00D749FF00DDF
:1009C000659FF00D9927729FB00DE11DF91F639F80
:1009D000B00DE11DF91FBD01CF011124089597FB52
:1009E000092E07260AD077FD04D049D006D0002072
:1009F0001AF4709561957F4F0895F6F7909581955B
:100A00009F4F0895A1E21A2EAA1BBB1BFD010DC02A
:100A1000AA1FBB1FEE1FFF1FA217B307E407F507AE
:100A200020F0A21BB30BE40BF50B661F771F881F8A
:100A3000991F1A9469F760957095809590959B0120
:100A4000AC01BD01CF01089597FB092E05260ED0FC
:100A500057FD04D0D7DF0AD0001C38F450954095DC
:100A6000309521953F4F4F4F5F4F0895F6F7909582
:100A70008095709561957F4F8F4F9F4F0895AA1B6A
:100A8000BB1B51E107C0AA1FBB1FA617B70710F079
:100A9000A61BB70B881F991F5A95A9F780959095AB
:100AA000BC01CD010895EE0FFF1F0590F491E02DDC
:060AB0000994F894FFCF49
:100AB60056616C6F7220646F204C44523A20000ECF
:100AC6000001000200030004000500080007000DF5
:100AD6000009000D0001000000005E03AB03C30324
:00000001FF
