:100000000C9461000C947E000C947E000C947E0095
:100010000C947E000C947E000C947E000C947E0068
:100020000C947E000C947E000C947E000C947E0058
:100030000C947E000C947E000C947E000C947E0048
:100040000C9446010C947E000C947E000C947E006F
:100050000C947E000C947E000C947E000C947E0028
:100060000C947E000C947E00000000002400270009
:100070002A0000000000250028002B0000000000DE
:1000800023002600290004040404040404040202DA
:100090000202020203030303030301020408102007
:1000A0004080010204081020010204081020000012
:1000B0000007000201000003040600000000000029
:1000C000000011241FBECFEFD8E0DEBFCDBF11E08E
:1000D000A0E0B1E0EAECF5E002C005900D92A0309E
:1000E000B107D9F711E0A0E0B1E001C01D92A13144
:1000F000B107E1F70E943F010C94E3020C94000069
:10010000FF920F931F93982F162F042FF22E89E042
:10011000692F0E94200286E0612F0E94200282E166
:10012000602F0E94200281E16F2D0E9420021F910A
:100130000F91FF9008958091040190910501813005
:10014000910581F0823091051CF4009741F016C0B2
:100150008230910551F08330910581F40BC081E02C
:1001600060E00AC081E060E002C080E061E041E060
:1001700020E004C080E061E040E021E00E948000D7
:1001800008958091040190910501019664E070E06A
:100190000E94BC0290930501809304010E949B0081
:1001A000089580E00E946D02892BA1F420E030E0E8
:1001B0008091060190910701892B11F421E030E034
:1001C00030930701209306016CE271E080E090E03B
:1001D0000E949C0180910601909107010197A9F569
:1001E0008091000190910101A0910201B091030161
:1001F0000097A105B10551F40E948E0160930001A2
:100200007093010180930201909303010E948E017B
:1002100020910001309101014091020150910301B0
:10022000621B730B840B950B653671058105910577
:1002300060F00E94C1000E948E01609300017093E3
:1002400001018093020190930301089580E060E032
:100250000E94000289E061E00E94000286E061E005
:100260000E94000282E161E00E94000281E161E0FF
:100270000E9400028DE061E00E94000208950E9449
:10028000C6010E9426010E94D100FDCF1F920F924D
:100290000FB60F9211242F933F938F939F93AF9399
:1002A000BF9380910C0190910D01A0910E01B0912E
:1002B0000F01309110010196A11DB11D232F2D5F5B
:1002C0002D3720F02D570196A11DB11D209310014F
:1002D00080930C0190930D01A0930E01B0930F0138
:1002E0008091080190910901A0910A01B0910B0140
:1002F0000196A11DB11D8093080190930901A0935F
:100300000A01B0930B01BF91AF919F918F913F91E3
:100310002F910F900FBE0F901F9018958FB7F894E4
:1003200020910C0130910D0140910E0150910F016F
:100330008FBFB901CA010895EF92FF920F931F93E7
:100340007B018C018FB7F89440910C0150910D0105
:1003500060910E0170910F018FBF2FB7F8948091BB
:100360000C0190910D01A0910E01B0910F012FBFD2
:10037000841B950BA60BB70BE816F9060A071B079B
:1003800060F71F910F91FF90EF900895789484B5D6
:10039000826084BD84B5816084BD85B5826085BD81
:1003A00085B5816085BDEEE6F0E080818160808367
:1003B000E1E8F0E0808182608083808181608083D9
:1003C000E0E8F0E0808181608083E1EBF0E0808113
:1003D00084608083E0EBF0E0808181608083EAE7E5
:1003E000F0E080818460808380818260808380816E
:1003F000816080838081806880831092C10008952D
:10040000282F30E0C90186569F4FFC0194912A574E
:100410003F4FF9018491882391F0E82FF0E0EE0F2F
:10042000FF1FE859FF4FA591B491662329F48C91E1
:10043000909589238C9308958C91892B8C930895A2
:10044000482F50E0CA0182559F4FFC012491CA01F8
:1004500086569F4FFC0194914A575F4FFA013491A1
:100460003323D1F1222331F1233021F48091800014
:100470008F7705C0243031F4809180008F7D809388
:10048000800018C0213019F484B58F7704C0223061
:1004900021F484B58F7D84BD0DC0263021F4809178
:1004A000B0008F7705C0273029F48091B0008F7D90
:1004B0008093B000E32FF0E0EE0FFF1FEE58FF4FE8
:1004C000A591B491662329F48C91909589238C93FE
:1004D00008958C91892B8C930895682F70E0CB013F
:1004E00082559F4FFC012491CB0186569F4FFC0102
:1004F00044916A577F4FFB019491992319F420E0AE
:1005000030E038C0222331F1233021F48091800083
:100510008F7705C0243031F4809180008F7D8093E7
:10052000800018C0213019F484B58F7704C02230C0
:1005300021F484B58F7D84BD0DC0263021F48091D7
:10054000B0008F7705C0273029F48091B0008F7DEF
:100550008093B000892F90E0880F991F84589F4F97
:10056000FC01A591B4918C9120E030E0842311F03E
:1005700021E030E0C901089597FB092E07260AD033
:1005800077FD04D00CD006D000201AF47095619548
:100590007F4F0895F6F7909581959F4F0895AA1B78
:1005A000BB1B51E107C0AA1FBB1FA617B70710F05E
:1005B000A61BB70B881F991F5A95A9F78095909590
:0A05C000BC01CD010895F894FFCFAF
:00000001FF
