:100000000C9462000C948A000C948A000C948A0070
:100010000C948A000C948A000C948A000C948A0038
:100020000C948A000C948A000C948A000C948A0028
:100030000C948A000C948A000C948A000C948A0018
:100040000C94DF000C948A000C94C9010C948A0073
:100050000C948A000C948A000C948A000C948A00F8
:100060000C948A000C948A000000000024002700F1
:100070002A0000000000250028002B0000000000DE
:1000800023002600290004040404040404040202DA
:100090000202020203030303030301020408102007
:1000A0004080010204081020010204081020000012
:1000B0000007000201000003040600000000000029
:1000C0000000120311241FBECFEFD8E0DEBFCDBF6A
:1000D00011E0A0E0B1E0E8EFF9E002C005900D9278
:1000E000AC34B107D9F711E0ACE4B1E001C01D9226
:1000F000AC3EB107E1F710E0C4ECD0E004C02297B9
:10010000FE010E94F604C23CD107C9F70E94D80044
:100110000C94FA040C940000EF92FF920F931F933B
:1001200083E00E948B017C0109ED11E0C80160E0D1
:1001300071E00E948303C801B7010E94610464EF6B
:1001400071E080E090E00E9427011F910F91FF90E5
:10015000EF9008950F931F93CF93DF9383E060E0B8
:100160000E94A90180913F0161E00E94A9010BE278
:1001700011E0C0E0D0E008C0F801808161E00E9499
:10018000A90121960E5F1F4F80913D0190913E0184
:10019000C817D9078CF389ED91E040E855E260E09B
:1001A00070E00E940602DF91CF911F910F91089598
:1001B0000E9451010E94AA000E948C00FDCF1F9254
:1001C0000F920FB60F9211242F933F938F939F930B
:1001D000AF93BF938091500190915101A091520132
:1001E000B0915301309154010196A11DB11D232FEF
:1001F0002D5F2D3720F02D570196A11DB11D2093A5
:1002000054018093500190935101A0935201B093F7
:10021000530180914C0190914D01A0914E01B091FC
:100220004F010196A11DB11D80934C0190934D018A
:10023000A0934E01B0934F01BF91AF919F918F91C9
:100240003F912F910F900FBE0F901F901895EF9236
:10025000FF920F931F937B018C018FB7F89440910D
:1002600050015091510160915201709153018FBF23
:100270002FB7F8948091500190915101A0915201B3
:10028000B09153012FBF841B950BA60BB70BE8163B
:10029000F9060A071B0760F71F910F91FF90EF9077
:1002A0000895789484B5826084BD84B5816084BDEE
:1002B00085B5826085BD85B5816085BDEEE6F0E0DF
:1002C000808181608083E1E8F0E0808182608083CA
:1002D000808181608083E0E8F0E0808181608083BC
:1002E000E1EBF0E0808184608083E0EBF0E08081EE
:1002F00081608083EAE7F0E0808184608083808190
:100300008260808380818160808380818068808337
:100310001092C10008958F70909141019295990FAC
:10032000990F907C982B90937C0080917A00806448
:1003300080937A0080917A0086FDFCCF209178002E
:1003400040917900942F80E030E0282B392BC901AF
:100350000895282F30E0C90186569F4FFC019491E3
:100360002A573F4FF9018491882391F0E82FF0E05C
:10037000EE0FFF1FE859FF4FA591B491662329F4B2
:100380008C91909589238C9308958C91892B8C93D3
:1003900008951F920F920FB60F9211242F933F933F
:1003A0004F935F936F937F938F939F93AF93BF937D
:1003B000EF93FF934091C600E091D501F091D601F3
:1003C000CF01019660E870E00E9490049C0180914A
:1003D000D7019091D8012817390739F0EB5AFE4F11
:1003E00040833093D6012093D501FF91EF91BF91C7
:1003F000AF919F918F917F916F915F914F913F91BD
:100400002F910F900FBE0F901F9018955F926F92D3
:100410007F928F929F92AF92BF92CF92DF92EF9294
:10042000FF920F931F93CF93DF93EC013A014B019F
:10043000413482E458078FE0680780E078070CF0C9
:100440007FC060E874E88EE190E0A40193010E940F
:10045000C5042150304040405040CA01B90122E05B
:1004600030E040E050E00E94C50459016A01A60155
:100470009501209530954095509594E0220F331FBB
:10048000441F551F9A95D1F760E074E284EF90E025
:100490000E94C504CA01B9012FEF30E040E050E0EE
:1004A0000E947104A40193010E94C504C9018150F6
:1004B0009F4F181619061CF4522E5A9403C0552447
:1004C0005394521A60E079E08DE390E0A401930127
:1004D0000E94C5042150304040405040CA01B9013B
:1004E00022E030E040E050E00E94C50420953095C5
:1004F0004095509583E0220F331F441F551F8A9566
:10050000D1F760E074E284EF90E00E94C504CA0174
:10051000B9012FEF30E040E050E00E947104A401E7
:1005200093010E94C504C90181509F4F18161906F6
:100530001CF4822F815002C081E0821B851500F5DA
:10054000E885F98581E090E00A8802C0880F991F4C
:100550000A94E2F7808360E079E08DE390E0A40103
:1005600093010E94C5042150304040405040CA01D0
:10057000B90122E030E040E050E00E94C50404C030
:10058000E885F98510829501EC81FD813083EE814B
:10059000FF812083EA85FB85208141E050E0CA018C
:1005A0000E8402C0880F991F0A94E2F7282B20833B
:1005B000EA85FB852081CA010F8402C0880F991F3C
:1005C0000A94E2F7282B2083EA85FB85808108883E
:1005D00002C0440F551F0A94E2F7842B8083DF91F9
:1005E000CF911F910F91FF90EF90DF90CF90BF9030
:1005F000AF909F908F907F906F905F900895FC01D7
:10060000A085B18521898C9190E0022E02C095953C
:1006100087950A94E2F780FFF6CF0484F585E02DF4
:100620006083089586E491E09093DA018093D90184
:1006300085E591E09093DC018093DB0185EC90E00F
:100640009093DE018093DD0184EC90E09093E001D3
:100650008093DF0180EC90E09093E2018093E101D0
:1006600081EC90E09093E4018093E30186EC90E0CC
:100670009093E6018093E50184E08093E70183E0B5
:100680008093E80187E08093E90185E08093EA01A7
:1006900081E08093EB0108950F931F93CF93DF9335
:1006A0008C01EB0109C02196D801ED91FC910190DC
:1006B000F081E02DC801099568816623A1F7DF91DB
:1006C000CF911F910F910895EF92FF920F931F9377
:1006D000CF93DF938C017B01EA010CC0D7016D91B0
:1006E0007D01D801ED91FC910190F081E02DC801D0
:1006F00009952197209791F7DF91CF911F910F9145
:10070000FF90EF900895DC01ED91FC910280F38160
:10071000E02D099508950F931F938C01DC01ED9155
:10072000FC910190F081E02D6DE00995D801ED91EB
:10073000FC910190F081E02DC8016AE009951F91BC
:100740000F9108952F923F924F925F926F927F92F6
:100750008F929F92AF92BF92CF92DF92EF92FF92D1
:100760000F931F93DF93CF93CDB7DEB7A0970FB64C
:10077000F894DEBF0FBECDBF1C016A017B0141159D
:1007800051056105710549F4DC01ED91FC91019081
:10079000F081E02D60E3099554C088249924540128
:1007A000422E55246624772401E010E00C0F1D1F13
:1007B000080D191DC701B601A30192010E94A304EF
:1007C000F80160830894811C911CA11CB11CC70115
:1007D000B601A30192010E94A304C901DA016C01D0
:1007E0007D01C114D104E104F104F1F681E0E82EA9
:1007F000F12CEC0EFD1EE80CF91C3E010894611C66
:10080000711CD501C4010197A109B1096C01C81877
:10081000D90814C0F601EE0DFF1D60816A3010F496
:10082000605D01C0695CD101ED91FC910190F081A6
:10083000E02DC10109950894E108F1086E147F04C8
:1008400049F7A0960FB6F894DEBF0FBECDBFCF918B
:10085000DF911F910F91FF90EF90DF90CF90BF90AD
:10086000AF909F908F907F906F905F904F903F9050
:100870002F900895EF92FF920F931F93CF93DF93E2
:10088000EC017A018B0177FF0FC0E881F9810190BB
:10089000F081E02D6DE2099510950095F094E094BB
:1008A000E11CF11C011D111DCE01B801A7012AE0B8
:1008B0000E94A203DF91CF911F910F91FF90EF90C3
:1008C00008950F931F938C01AB01662757FD609528
:1008D000762F0E943A04C8010E948B031F910F914A
:1008E0000895629FD001739FF001829FE00DF11D7A
:1008F000649FE00DF11D929FF00D839FF00D749F9A
:10090000F00D659FF00D9927729FB00DE11DF91F45
:10091000639FB00DE11DF91FBD01CF0111240895A2
:1009200097FB092E07260AD077FD04D049D006D0C0
:1009300000201AF4709561957F4F0895F6F7909511
:1009400081959F4F0895A1E21A2EAA1BBB1BFD01A2
:100950000DC0AA1FBB1FEE1FFF1FA217B307E4079E
:10096000F50720F0A21BB30BE40BF50B661F771FF6
:10097000881F991F1A9469F76095709580959095D6
:100980009B01AC01BD01CF01089597FB092E0526FF
:100990000ED057FD04D0D7DF0AD0001C38F4509594
:1009A0004095309521953F4F4F4F5F4F0895F6F793
:1009B00090958095709561957F4F8F4F9F4F0895CB
:1009C000AA1BBB1B51E107C0AA1FBB1FA617B70775
:1009D00010F0A61BB70B881F991F5A95A9F7809591
:1009E0009095BC01CD010895EE0FFF1F0590F49185
:0809F000E02D0994F894FFCFFB
:1009F80056616C6F7220416E616C6F6769636F201E
:100A0800646F2053656E736F722064652054656D42
:100A180070657261747572613A20000E00010002FF
:100A280000030004000500080007000D000900127B
:0C0A3800000100000000FF024C036403FA
:00000001FF
