:100000000C9479000C94A1000C94A1000C94A10014
:100010000C94A1000C94A1000C94A1000C94A100DC
:100020000C94A1000C94A1000C94A1000C94A100CC
:100030000C94A1000C94A1000C94A1000C94A100BC
:100040000C9408020C94A1000C947E030C94A10063
:100050000C94A1000C94A1000C94A1000C94A1009C
:100060000C94A1000C94A100084AD73B3BCE016E32
:1000700084BCBFFDC12F3D6C74319ABD56833DDAFF
:100080003D00C77F11BED9E4BB4C3E916BAAAABE0E
:10009000000000803F00000000240027002A00002C
:1000A000000000250028002B00000000002300268F
:1000B00000290004040404040404040202020202ED
:1000C000020303030303030102040810204080011C
:1000D000020408102001020408102000000007009C
:1000E0000201000003040600000000000000000000
:1000F000C70411241FBECFEFD8E0DEBFCDBF11E093
:10010000A0E0B1E0E8E6F2E102C005900D92A03176
:10011000B107D9F711E0A0E1B1E001C01D92A63B03
:10012000B107E1F710E0C2EFD0E004C02297FE0172
:100130000E942E09C03FD107C9F70E9401020C940A
:1001400032090C940000EF92FF920F931F93CF930C
:10015000DF938C01EB0181E0E82EF12C25C080912A
:10016000030160E00E94E20297010C2E02C0220F00
:10017000331F0A94E2F7C901802391238217930762
:1001800021F48091050161E003C08091050160E0E8
:100190000E94E2028091030161E00E94E20281E09C
:1001A00090E00E947A022197D7FFD9CFDF91CF91BB
:1001B0001F910F91FF90EF9008958091050161E0EC
:1001C0000E94C2028091040160E00E94E20288E085
:1001D00090E063E070E00E94A3008091040161E080
:1001E0000E94E20208958091050161E00E94C2022E
:1001F0008091040160E00E94E20280E090E063E010
:1002000070E00E94A3008091040161E00E94E2027C
:10021000089583EA91E040E052EC61E070E00E94D2
:10022000BB038091040161E00E94C202809103013E
:1002300061E00E94C2028091050160E00E94C2025A
:100240000E94F30008950F931F93CF93DF93182F0D
:10025000092F8091050160E00E94C202212F302FFA
:10026000C901EC0100E010E021C08091030161E0D0
:100270000E94E20281E090E00E947A0280910501F2
:100280000E942F039801220F331F019721F4890147
:100290000F5F1F4F01C089018091030160E00E9440
:1002A000E20281E090E00E947A022197D7FFDDCF41
:1002B00013FD186FC801DF91CF911F910F91089521
:1002C0008091050161E00E94C2028091040160E01A
:1002D0000E94E2028CE090E063E070E00E94A300E4
:1002E00083E090E00E9423010895CF92DF92EF9285
:1002F000FF920F931F930E94DD0068E270E080E0A0
:1003000090E00E9450020E946001BC0153EAC52E99
:1003100051E0D52EC6010E94210600E011E0C60181
:10032000B8010E9438058BE090E00E942301909371
:100330001101809310018BE090E00E9423019093C3
:100340001301809312016091100170911101C60197
:100350000E942106C601B8010E9438056091120171
:1003600070911301C6010E942106C601B8010E94C6
:1003700038058091040161E00E94E202609112015F
:1003800070911301709561957F4F882777FD809557
:10039000982F0E948B077B018C0160911001709156
:1003A0001101882777FD8095982F0E948B079B016C
:1003B000AC01C801B7010E949D062BED3FE049E466
:1003C00050E40E94F00620E030E044E353E40E9451
:1003D00043080E9458079B01AC017093150160937C
:1003E0001401C601B9010E942106C60162E071E054
:1003F0000E9457051F910F91FF90EF90DF90CF90D3
:1004000008950E9488020E9409010E947501FDCF93
:100410001F920F920FB60F9211242F933F938F9339
:100420009F93AF93BF9380911A0190911B01A0916C
:100430001C01B0911D0130911E010196A11DB11D3D
:10044000232F2D5F2D3720F02D570196A11DB11DB3
:1004500020931E0180931A0190931B01A0931C010D
:10046000B0931D018091160190911701A091180180
:10047000B09119010196A11DB11D809316019093B1
:100480001701A0931801B0931901BF91AF919F91EB
:100490008F913F912F910F900FBE0F901F90189545
:1004A000EF92FF920F931F937B018C018FB7F8940B
:1004B00040911A0150911B0160911C0170911D0126
:1004C0008FBF2FB7F89480911A0190911B01A091D2
:1004D0001C01B0911D012FBF841B950BA60BB70B00
:1004E000E816F9060A071B0760F71F910F91FF90A6
:1004F000EF900895019759F0FC01EE0FFF1FEE0FEA
:10050000FF1F32978FB7F8943197F1F78FBF089597
:10051000789484B5826084BD84B5816084BD85B5DE
:10052000826085BD85B5816085BDEEE6F0E08081A5
:1005300081608083E1E8F0E0808182608083808157
:1005400081608083E0E8F0E0808181608083E1EB7E
:10055000F0E0808184608083E0EBF0E08081816066
:100560008083EAE7F0E0808184608083808182601C
:100570008083808181608083808180688083109205
:10058000C1000895282F30E0C90189539F4FFC0115
:1005900094912D543F4FF9018491882391F0E82FD5
:1005A000F0E0EE0FFF1FEB56FF4FA591B4916623CD
:1005B00029F48C91909589238C9308958C91892BA3
:1005C0008C930895482F50E0CA0185529F4FFC013B
:1005D0002491CA0189539F4FFC0194914D545F4F60
:1005E000FA0134913323D1F1222331F1233021F464
:1005F000809180008F7705C0243031F48091800095
:100600008F7D8093800018C0213019F484B58F77D6
:1006100004C0223021F484B58F7D84BD0DC0263006
:1006200021F48091B0008F7705C0273029F48091A4
:10063000B0008F7D8093B000E32FF0E0EE0FFF1F3E
:10064000E156FF4FA591B491662329F48C919095C2
:1006500089238C9308958C91892B8C930895682F0E
:1006600070E0CB0185529F4FFC012491CB0189534F
:100670009F4FFC0144916D547F4FFB01949199234E
:1006800019F420E030E038C0222331F1233021F486
:10069000809180008F7705C0243031F480918000F4
:1006A0008F7D8093800018C0213019F484B58F7736
:1006B00004C0223021F484B58F7D84BD0DC0263066
:1006C00021F48091B0008F7705C0273029F4809104
:1006D000B0008F7D8093B000892F90E0880F991F24
:1006E00087559F4FFC01A591B4918C9120E030E09B
:1006F000842311F021E030E0C90108951F920F9288
:100700000FB60F9211242F933F934F935F936F93E4
:100710007F938F939F93AF93BF93EF93FF934091FA
:10072000C600E0919F01F091A001CF01019660E821
:1007300070E00E94C8089C018091A1019091A201E3
:100740002817390739F0E15EFE4F40833093A0014E
:1007500020939F01FF91EF91BF91AF919F918F9156
:100760007F916F915F914F913F912F910F900FBEAD
:100770000F901F9018955F926F927F928F929F9229
:10078000AF92BF92CF92DF92EF92FF920F931F939F
:10079000CF93DF93EC013A014B01413482E45807D7
:1007A0008FE0680780E078070CF07FC060E874E8AD
:1007B0008EE190E0A40193010E94FD082150304099
:1007C00040405040CA01B90122E030E040E050E032
:1007D0000E94FD0859016A01A601950120953095F6
:1007E0004095509594E0220F331F441F551F9A9552
:1007F000D1F760E074E284EF90E00E94FD08CA0146
:10080000B9012FEF30E040E050E00E94A908A401B8
:1008100093010E94FD08C90181509F4F18161906C7
:100820001CF4522E5A9403C055245394521A60E07B
:1008300079E08DE390E0A40193010E94FD0821502E
:10084000304040405040CA01B90122E030E040E071
:1008500050E00E94FD08209530954095509583E02A
:10086000220F331F441F551F8A95D1F760E074E2B1
:1008700084EF90E00E94FD08CA01B9012FEF30E03B
:1008800040E050E00E94A908A40193010E94FD08E5
:10089000C90181509F4F181619061CF4822F8150F0
:1008A00002C081E0821B851500F5E885F98581E0AD
:1008B00090E00A8802C0880F991F0A94E2F78083AB
:1008C00060E079E08DE390E0A40193010E94FD08CF
:1008D0002150304040405040CA01B90122E030E090
:1008E00040E050E00E94FD0804C0E885F9851082D0
:1008F0009501EC81FD813083EE81FF812083EA85C3
:10090000FB85208141E050E0CA010E8402C0880FBF
:10091000991F0A94E2F7282B2083EA85FB85208122
:10092000CA010F8402C0880F991F0A94E2F7282B8E
:100930002083EA85FB858081088802C0440F551F0B
:100940000A94E2F7842B8083DF91CF911F910F915E
:10095000FF90EF90DF90CF90BF90AF909F908F90DF
:100960007F906F905F900895FC01A085B1852189EB
:100970008C9190E0022E02C0959587950A94E2F73B
:1009800080FFF6CF0484F585E02D608308958AE02A
:1009900091E09093A4018093A3018FE191E0909363
:1009A000A6018093A50185EC90E09093A801809327
:1009B000A70184EC90E09093AA018093A90180ECB8
:1009C00090E09093AC018093AB0181EC90E0909328
:1009D000AE018093AD0186EC90E09093B0018093DE
:1009E000AF0184E08093B10183E08093B20187E09E
:1009F0008093B30185E08093B40181E08093B501D9
:100A000008950F931F93CF93DF938C01EB0109C0DF
:100A10002196D801ED91FC910190F081E02DC80163
:100A2000099568816623A1F7DF91CF911F910F91FE
:100A30000895EF92FF920F931F93CF93DF938C0152
:100A40007B01EA010CC0D7016D917D01D801ED91C8
:100A5000FC910190F081E02DC80109952197209724
:100A600091F7DF91CF911F910F91FF90EF90089533
:100A7000DC01ED91FC910280F381E02D0995089550
:100A80000F931F938C01DC01ED91FC910190F0819B
:100A9000E02D6DE00995D801ED91FC910190F08178
:100AA000E02DC8016AE009951F910F9108950F93F9
:100AB0001F938C010E943805C8010E9440051F91B8
:100AC0000F9108952F923F924F925F926F927F9273
:100AD0008F929F92AF92BF92CF92DF92EF92FF924E
:100AE0000F931F93DF93CF93CDB7DEB7A0970FB6C9
:100AF000F894DEBF0FBECDBF1C016A017B0141151A
:100B000051056105710549F4DC01ED91FC910190FD
:100B1000F081E02D60E3099554C0882499245401A4
:100B2000422E55246624772401E010E00C0F1D1F8F
:100B3000080D191DC701B601A30192010E94DB082F
:100B4000F80160830894811C911CA11CB11CC70191
:100B5000B601A30192010E94DB08C901DA016C0110
:100B60007D01C114D104E104F104F1F681E0E82E25
:100B7000F12CEC0EFD1EE80CF91C3E010894611CE2
:100B8000711CD501C4010197A109B1096C01C818F4
:100B9000D90814C0F601EE0DFF1D60816A3010F413
:100BA000605D01C0695CD101ED91FC910190F08123
:100BB000E02DC10109950894E108F1086E147F0445
:100BC00049F7A0960FB6F894DEBF0FBECDBFCF9108
:100BD000DF911F910F91FF90EF90DF90CF90BF902A
:100BE000AF909F908F907F906F905F904F903F90CD
:100BF0002F900895EF92FF920F931F93CF93DF935F
:100C0000EC017A018B0177FF0FC0E881F981019037
:100C1000F081E02D6DE2099510950095F094E09437
:100C2000E11CF11C011D111DCE01B801A7012AE034
:100C30000E946205DF91CF911F910F91FF90EF907D
:100C40000895AB01662757FD6095762F0E94FA053F
:100C500008955058BB27AA270ED0D4C1C5D130F073
:100C6000CAD120F031F49F3F11F41EF495C10EF467
:100C7000E095E7FB8BC1E92FD6D180F3BA17620765
:100C800073078407950718F071F49EF5EEC10EF412
:100C9000E0950B2EBA2FA02D0B01B90190010C018C
:100CA000CA01A0011124FF27591B99F0593F50F4A4
:100CB000503E68F11A16F040A22F232F342F4427FC
:100CC000585FF3CF469537952795A795F0405395F4
:100CD000C9F77EF41F16BA0B620B730B840BBAF0C4
:100CE0009150A1F0FF0FBB1F661F771F881FC2F72F
:100CF0000EC0BA0F621F731F841F48F48795779543
:100D00006795B795F7959E3F08F0B3CF9395880FF9
:100D100008F09927EE0F97958795089565D158F0BB
:100D200080E891E009F49EEF66D128F040E851E0B8
:100D300059F45EEF09C030C198C1E92FE07873D152
:100D400068F3092E052AC1F3261737074807590704
:100D500038F00E2E07F8E02569F0E025E0640AC0BF
:100D6000EF6307F8009407FADB01B9019D01DC018C
:100D7000CA01AD01EF9343D045D10AD05F9155230D
:100D800031F02BED3FE049E450FD49EC63CF08958D
:100D9000DF93DD27B92FBF7740E85FE3161617060C
:100DA00048075B0710F4D92F67D19F938F937F93E8
:100DB0006F93CCD1E8E6F0E0F2D024D12F913F91AF
:100DC0004F915F916CD1DD2349F09058A2EA2AED52
:100DD0003FE049EC5FE3D0785D274DDFDF9112C142
:100DE0000CD010C108D140F0FFD030F021F45F3FAB
:100DF00019F0CCC051113AC1CFC015D198F3992345
:100E0000C9F35523B1F3951B550BBB27AA276217CE
:100E10007307840738F09F5F5F4F220F331F441F13
:100E2000AA1FA9F333D00E2E3AF0E0E830D091504B
:100E30005040E695001CCAF729D0FE2F27D0660F38
:100E4000771F881FBB1F261737074807AB07B0E877
:100E500009F0BB0B802DBF01FF2793585F4F2AF08D
:100E60009E3F510568F092C001C15F3FECF3983E90
:100E7000DCF3869577956795B795F7959F5FC9F7EA
:100E8000880F911D9695879597F90895E1E0660F73
:100E9000771F881FBB1F621773078407BA0720F0EC
:100EA000621B730B840BBA0BEE1F88F7E095089555
:100EB00004D06894B111DAC00895BDD088F09F576E
:100EC00090F0B92F9927B751A0F0D1F0660F771F96
:100ED000881F991F1AF0BA95C9F712C0B13081F076
:100EE000C4D0B1E00895C1C0672F782F8827B85FBC
:100EF00039F0B93FCCF3869577956795B395D9F7D7
:100F00003EF490958095709561957F4F8F4F9F4FE0
:100F10000895E89409C097FB3EF4909580957095EC
:100F200061957F4F8F4F9F4F9923A9F0F92F96E935
:100F3000BB279395F695879577956795B795F111AA
:100F4000F8CFFAF4BB0F11F460FF1BC06F5F7F4F47
:100F50008F4F9F4F16C0882311F096E911C0772359
:100F600021F09EE8872F762F05C0662371F096E862
:100F7000862F70E060E02AF09A95660F771F881F31
:100F8000DAF7880F9695879597F9089597F99F67EF
:100F900080E870E060E008959FEF80EC0895DF93B3
:100FA000CF931F930F93FF92EF92DF927B018C01FF
:100FB000689405C0DA2EEF0172D0FE01E894A59185
:100FC0002591359145915591AEF3EF0154DEFE0127
:100FD0009701A801DA9479F7DF90EF90FF900F91D5
:100FE0001F91CF91DF91089500240A9416161706D9
:100FF00018060906089500240A941216130614060A
:1010000005060895092E0394000C11F4882352F06C
:10101000BB0F40F4BF2B11F460FF04C06F5F7F4F24
:101020008F4F9F4F089557FD9058440F551F59F00B
:101030005F3F71F04795880F97FB991F61F09F3FC5
:1010400079F087950895121613061406551FF2CFEE
:101050004695F1DF08C0161617061806991FF1CF3E
:1010600086957105610508940895E894BB27662765
:101070007727CB0197F908959B01AC0160E070E000
:1010800080E89FE3ADCE0BD0BDCFAEDF28F0B3DF5D
:1010900018F0952309F07ACF7FCF1124E7CFC3DF73
:1010A000A0F3959FD1F3950F50E0551F629FF0017B
:1010B000729FBB27F00DB11D639FAA27F00DB11DD4
:1010C000AA1F649F6627B00DA11D661F829F22275D
:1010D000B00DA11D621F739FB00DA11D621F839FE4
:1010E000A00D611D221F749F3327A00D611D231FBA
:1010F000849F600D211D822F762F6A2F11249F5708
:1011000050408AF0E1F088234AF0EE0FFF1FBB1F2A
:10111000661F771F881F91505040A9F79E3F5105C9
:1011200070F034CFA3CF5F3FECF3983EDCF38695AD
:1011300077956795B795F795E7959F5FC1F7FE2B74
:10114000880F911D9695879597F908959B01AC019D
:101150009ACF629FD001739FF001829FE00DF11D35
:10116000649FE00DF11D929FF00D839FF00D749F21
:10117000F00D659FF00D9927729FB00DE11DF91FCD
:10118000639FB00DE11DF91FBD01CF01112408952A
:1011900097FB092E07260AD077FD04D049D006D048
:1011A00000201AF4709561957F4F0895F6F7909599
:1011B00081959F4F0895A1E21A2EAA1BBB1BFD012A
:1011C0000DC0AA1FBB1FEE1FFF1FA217B307E40726
:1011D000F50720F0A21BB30BE40BF50B661F771F7E
:1011E000881F991F1A9469F760957095809590955E
:1011F0009B01AC01BD01CF01089597FB092E052687
:101200000ED057FD04D0D7DF0AD0001C38F450951B
:101210004095309521953F4F4F4F5F4F0895F6F71A
:1012200090958095709561957F4F8F4F9F4F089552
:10123000AA1BBB1B51E107C0AA1FBB1FA617B707FC
:1012400010F0A61BB70B881F991F5A95A9F7809518
:101250009095BC01CD010895EE0FFF1F0590F4910C
:08126000E02D0994F894FFCF82
:1012680020000008090A00000000B404010519055F
:00000001FF
