:100000000C9461000C947E000C947E000C947E0095
:100010000C947E000C947E000C947E000C947E0068
:100020000C947E000C947E000C947E000C947E0058
:100030000C947E000C947E000C947E000C947E0048
:100040000C94F8000C947E000C947E000C947E00BE
:100050000C947E000C947E000C947E000C947E0028
:100060000C947E000C947E00000000002400270009
:100070002A0000000000250028002B0000000000DE
:1000800023002600290004040404040404040202DA
:100090000202020203030303030301020408102007
:1000A0004080010204081020010204081020000012
:1000B0000007000201000003040600000000000029
:1000C000000011241FBECFEFD8E0DEBFCDBF11E08E
:1000D000A0E0B1E0ECE8F4E002C005900D92A030A1
:1000E000B107D9F711E0A0E0B1E001C01D92A53140
:1000F000B107E1F70E94F1000C9444020C94000057
:1001000080E00E94F5019C01009749F58091000173
:1001100090910101892B19F58091020190910301C1
:10012000892B21F58DE061E00E94A80182E161E068
:100130000E94A80181E090E090930101809300016A
:1001400090930301809302010E9440016093040197
:1001500070930501809306019093070107C0213039
:10016000310521F4109201011092000180910201E9
:1001700090910301019739F50E94400160930801B5
:100180007093090180930A0190930B01209104015F
:10019000309105014091060150910701621B730BDC
:1001A000840B950B695E73408040904060F0109224
:1001B0000301109202018DE060E00E94A80182E13B
:1001C00060E00E94A801089580E060E00E9488013C
:1001D00082E161E00E9488018DE061E00E94880177
:1001E00008950E944E010E94E4000E948000FDCF0D
:1001F0001F920F920FB60F9211242F933F938F935C
:100200009F93AF93BF938091100190911101A091A2
:100210001201B0911301309114010196A11DB11D7D
:10022000232F2D5F2D3720F02D570196A11DB11DD5
:10023000209314018093100190931101A093120157
:10024000B093130180910C0190910D01A0910E01CA
:10025000B0910F010196A11DB11D80930C019093E7
:100260000D01A0930E01B0930F01BF91AF919F912B
:100270008F913F912F910F900FBE0F901F90189567
:100280008FB7F89420911001309111014091120123
:10029000509113018FBFB901CA010895789484B5B4
:1002A000826084BD84B5816084BD85B5826085BD72
:1002B00085B5816085BDEEE6F0E080818160808358
:1002C000E1E8F0E0808182608083808181608083CA
:1002D000E0E8F0E0808181608083E1EBF0E0808104
:1002E00084608083E0EBF0E0808181608083EAE7D6
:1002F000F0E080818460808380818260808380815F
:10030000816080838081806880831092C10008951D
:10031000282F30E0C90186569F4FFC0194912A573F
:100320003F4FF9018491882391F0E82FF0E0EE0F20
:10033000FF1FE859FF4FA591B491662329F48C91D2
:10034000909589238C9308958C91892B8C93089593
:10035000482F50E0CA0182559F4FFC012491CA01E9
:1003600086569F4FFC0194914A575F4FFA01349192
:100370003323D1F1222331F1233021F48091800005
:100380008F7705C0243031F4809180008F7D809379
:10039000800018C0213019F484B58F7704C0223052
:1003A00021F484B58F7D84BD0DC0263021F4809169
:1003B000B0008F7705C0273029F48091B0008F7D81
:1003C0008093B000E32FF0E0EE0FFF1FEE58FF4FD9
:1003D000A591B491662329F48C91909589238C93EF
:1003E00008958C91892B8C930895682F70E0CB0130
:1003F00082559F4FFC012491CB0186569F4FFC01F3
:1004000044916A577F4FFB019491992319F420E09E
:1004100030E038C0222331F1233021F48091800074
:100420008F7705C0243031F4809180008F7D8093D8
:10043000800018C0213019F484B58F7704C02230B1
:1004400021F484B58F7D84BD0DC0263021F48091C8
:10045000B0008F7705C0273029F48091B0008F7DE0
:100460008093B000892F90E0880F991F84589F4F88
:10047000FC01A591B4918C9120E030E0842311F02F
:0C04800021E030E0C9010895F894FFCF9E
:00000001FF
