:100000000C9461000C947E000C947E000C947E0095
:100010000C947E000C947E000C947E000C947E0068
:100020000C947E000C947E000C947E000C947E0058
:100030000C947E000C947E000C947E000C947E0048
:100040000C9410010C947E000C947E000C947E00A5
:100050000C947E000C947E000C947E000C947E0028
:100060000C947E000C947E00000000002400270009
:100070002A0000000000250028002B0000000000DE
:1000800023002600290004040404040404040202DA
:100090000202020203030303030301020408102007
:1000A0004080010204081020010204081020000012
:1000B0000007000201000003040600000000000029
:1000C000000011241FBECFEFD8E0DEBFCDBF11E08E
:1000D000A0E0B1E0ECEDF5E002C005900D92A43196
:1000E000B107D9F711E0A4E1B1E001C01D92AF3131
:1000F000B107E1F70E9409010C94EC020C94000096
:10010000AF92BF92CF92DF92EF92FF920F931F9325
:10011000CF93DF9300D000D060911401709115014E
:10012000882777FD8095982F29E030E040E050E067
:10013000EDB7FEB7218332834383548320E030E060
:1001400040E050E0EEEEEE2EE2E0FE2E012D112D0D
:10015000AA24BB2465010E9447026B0180E0E82EBF
:1001600081E0F82EE70100E010E00F900F900F9073
:100170000F900DC0888161E00E94FA0164E670E092
:1001800080E090E00E9458010F5F1F4F22960C15EF
:100190001D0584F300E010E011C0F701808160E0EC
:1001A0000E94FA0164E670E080E090E00E9458014D
:1001B0000F5F1F4F82E090E0E80EF91E0C151D0541
:1001C00064F3DF91CF911F910F91FF90EF90DF903B
:1001D000CF90BF90AF90089585E00E94BC019093AE
:1001E00015018093140108950E94EC000E94800084
:1001F0000895CF93DF93C0E0D1E0888161E00E9451
:10020000DA01229681E0C231D807B9F7DF91CF91A8
:1002100008950E9482010E94F9000E94F400FDCF1F
:100220001F920F920FB60F9211242F933F938F932B
:100230009F93AF93BF9380911A0190911B01A0915E
:100240001C01B0911D0130911E010196A11DB11D2F
:10025000232F2D5F2D3720F02D570196A11DB11DA5
:1002600020931E0180931A0190931B01A0931C01FF
:10027000B0931D018091160190911701A091180172
:10028000B09119010196A11DB11D809316019093A3
:100290001701A0931801B0931901BF91AF919F91DD
:1002A0008F913F912F910F900FBE0F901F90189537
:1002B000EF92FF920F931F937B018C018FB7F894FD
:1002C00040911A0150911B0160911C0170911D0118
:1002D0008FBF2FB7F89480911A0190911B01A091C4
:1002E0001C01B0911D012FBF841B950BA60BB70BF2
:1002F000E816F9060A071B0760F71F910F91FF9098
:10030000EF900895789484B5826084BD84B581604F
:1003100084BD85B5826085BD85B5816085BDEEE60D
:10032000F0E0808181608083E1E8F0E0808182609C
:100330008083808181608083E0E8F0E0808181605B
:100340008083E1EBF0E0808184608083E0EBF0E08B
:10035000808181608083EAE7F0E08081846080832F
:1003600080818260808380818160808380818068D9
:1003700080831092C10008958F7090911201929520
:10038000990F990F907C982B90937C0080917A0024
:10039000806480937A0080917A0086FDFCCF209162
:1003A000780040917900942F80E030E0282B392BA1
:1003B000C9010895282F30E0C90186569F4FFC01DE
:1003C00094912A573F4FF9018491882391F0E82FA7
:1003D000F0E0EE0FFF1FE859FF4FA591B49166239F
:1003E00029F48C91909589238C9308958C91892B75
:1003F0008C930895482F50E0CA0182559F4FFC010D
:100400002491CA0186569F4FFC0194914A575F4F31
:10041000FA0134913323D1F1222331F1233021F435
:10042000809180008F7705C0243031F48091800066
:100430008F7D8093800018C0213019F484B58F77A8
:1004400004C0223021F484B58F7D84BD0DC02630D8
:1004500021F48091B0008F7705C0273029F4809176
:10046000B0008F7D8093B000E32FF0E0EE0FFF1F10
:10047000EE58FF4FA591B491662329F48C91909585
:1004800089238C9308958C91892B8C9308952F92B6
:100490003F924F925F926F927F928F929F92AF9214
:1004A000BF92CF92DF92EF92FF920F931F93DF9351
:1004B000CF93CDB7DEB73B014C0119012A016D89FD
:1004C0007E898F89988D6A197B098C099D09621A2A
:1004D000730A840A950AA40193010E949002E2180B
:1004E000F30804091509A80197010E94AF022A0D1B
:1004F0003B1D4C1D5D1DB901CA01CF91DF911F91BC
:100500000F91FF90EF90DF90CF90BF90AF909F90B2
:100510008F907F906F905F904F903F902F900895B5
:10052000629FD001739FF001829FE00DF11D649FD7
:10053000E00DF11D929FF00D839FF00D749FF00D63
:10054000659FF00D9927729FB00DE11DF91F639F04
:10055000B00DE11DF91FBD01CF011124089597FBD6
:10056000092E05260ED057FD04D014D00AD0001C49
:1005700038F450954095309521953F4F4F4F5F4F40
:100580000895F6F790958095709561957F4F8F4F00
:100590009F4F0895A1E21A2EAA1BBB1BFD010DC09F
:1005A000AA1FBB1FEE1FFF1FA217B307E407F50723
:1005B00020F0A21BB30BE40BF50B661F771F881FFF
:1005C000991F1A9469F760957095809590959B0195
:0C05D000AC01BD01CF010895F894FFCFED
:1005DC000E000100020003000400050008000600E4
:0405EC000D000100FD
:00000001FF
