:100000000C9434000C9451000C9451000C94510049
:100010000C9451000C9451000C9451000C9451001C
:100020000C9451000C9451000C9451000C9451000C
:100030000C9451000C9451000C9451000C945100FC
:100040000C9451000C9451000C9451000C945100EC
:100050000C9451000C9451000C9451000C945100DC
:100060000C9451000C94510011241FBECFEFD8E026
:10007000DEBFCDBF15E0A0E0B1E0E8ECFAE002C0E1
:1000800005900D92AE38B107D9F715E0AEE8B5E0AE
:1000900001C01D92A639B107E1F70E94B1000C948E
:1000A00062050C9400008BE284B91092C50080E1D7
:1000B0008093C40082E08093C00088E18093C100F7
:1000C00086E08093C20080E291E090939305809354
:1000D0009205F8941AB88FEF8BB981E08093B10044
:1000E00008951F93182F8A3019F48DE00E94710033
:1000F0008091C00085FFFCCF1093C60080E090E0A7
:100100001F9108958091C00087FFFCCF8091C600A9
:10011000089551E040EF0EC057BB4093B20028EE67
:1001200033E0B89BFECF57BB4093B2002150304024
:10013000C1F70197181619067CF308959C0181E018
:1001400087BB80EF8093B20091E007C0B89BFECFE1
:1001500097BB8093B2002150304012161306B4F3BF
:1001600008958BE284B91092C50080E18093C400A9
:1001700082E08093C00088E18093C10086E0809394
:10018000C20080E291E09093930580939205F894E9
:100190001AB88FEF8BB981E08093B10080E091E0D5
:1001A0000E9479020E94E0018DE091E00E947902B4
:1001B00080E090E00E94960100D088E191E0EDB7E8
:1001C000FEB7928381830E9464020F900F900E9479
:1001D00040014B9906C080EF90E00E9496010E947A
:1001E00040014C9906C08AE69FE00E9496010E9459
:1001F00040014D99EECF80E090E00E949601E7CF5C
:100200000F931F93082F29982B9A2D9881E090E047
:100210000E949E002D9A10E007FF02C02B9A01C099
:100220002B982D9881E090E00E949E002D9A1F5FF0
:10023000183011F0000FF0CF299A1F910F910895F7
:100240000F931F93082F29982B982D9881E090E009
:100250000E949E002D9A10E007FF02C02B9A01C059
:100260002B982D9881E090E00E949E002D9A1F5FB0
:10027000183011F0000FF0CF299A1F910F910895B7
:10028000BF92CF92DF92EF92FF920F931F93CF9383
:10029000DF930EE211E0C4E0D0E089E1C82ED12C5A
:1002A000F801B080EE24FF24B7FE1EC085E70E944F
:1002B00020018C2D0E94000184E80E94000185E14C
:1002C0000E9420018C2F0E94000182E80E94000100
:1002D0008CE50E94200180EF0E9400018FE00E94C7
:1002E000000180E00E9400012196C438D10529F464
:1002F0000894C11CD11CC4E0D0E00894E11CF11C9E
:10030000F8E0EF16F10411F0BB0CCECF0F5F1F4FDA
:1003100085E00E38180721F6DF91CF911F910F91DC
:10032000FF90EF90DF90CF90BF900895EF92FF92F3
:100330000F931F93CF93DF938C0185E70E942001D9
:1003400080E00E94000183E80E94000185E10E9494
:10035000200180E00E94000183E80E9400018CE5FA
:100360000E942001C80154E0959587955A95E1F7C0
:10037000E82E212F332727FD3A95C80134E0880F56
:10038000991F3A95E1F7F22EF82AC0E0D0E08E2DC1
:100390000E9400018F2D0E940001802F0E94000109
:1003A000219681E2C438D80791F710928E051092F9
:1003B0008F05DF91CF911F910F91FF90EF900895DE
:1003C00088EC90E00E9489002D982B988AE090E0BC
:1003D0000E949E00299A8AE090E00E949E00289840
:1003E00088EC90E00E948900289A88EC90E00E94B6
:1003F00089002D9A2B9A8AE090E00E949E008AEC58
:100400000E9420018CE00E94000180E20E94000115
:1004100080E00E94000181E00E9400018BEB0E94BD
:10042000200181E00E94000181ED0E94200184E909
:100430000E94200181E10E94200180E20E942001AF
:100440008FE00E94000183E00E94200187EA0E9461
:10045000200181E20E9420018CEB0E94200183E0B8
:100460000E94000180E00E94000182E00E940001E1
:1004700086E30E94200188EC0E9400018AE30E942A
:10048000200182E00E94000181E80E94200184E2B4
:100490000E94000183E00E94000185E20E94200189
:1004A00080E30E94000185E20E94200180E00E941A
:1004B000200188EC90E00E9489008FEA0E942001D0
:1004C00089E20E9420010895A0E0B0E0EAE6F2E0AF
:1004D0000C943B05FE0135966191719180919205D6
:1004E00090919305AF010E94AE022096E2E00C9439
:1004F00057050F931F93CF93DF938C01E0919205E3
:10050000F0919305838181FF21C0C0E0D0E00DC050
:10051000E0919205F091930520853185BF01F901A5
:100520000995892B11F0CFEFDFEFF80181918F0151
:10053000882371F7E0919205F0919305208531852C
:100540008AE0BF01F9010995892B11F0CFEFDFEFA8
:10055000CE01DF91CF911F910F910895ABE0B0E0F4
:10056000E4EBF2E00C942B053C012B015A01FC0159
:1005700017821682838181FD03C06FEF7FEFC6C1B2
:100580009AE0892E1E010894211C311CF30123815D
:10059000F20123FD859123FF81912F01882309F426
:1005A000B2C1853239F423FD859123FF81912F015A
:1005B000853229F490E0B3010E94A104E7CF982F7F
:1005C000FF24EE249924FFE1FF15D0F09B3269F05F
:1005D0009C3228F4903259F0933291F40EC09D323F
:1005E00049F0903369F441E024C052E0F52A84E0F8
:1005F000F82A28C098E0F92A25C0E0E1FE2A22C0A6
:10060000F7FC29C0892F80538A3070F4F6FE05C0AC
:10061000989C902C1124980E15C0E89CE02C112475
:10062000E80EF0E2FF2A0EC09E3229F4F6FC6BC100
:1006300040E4F42A07C09C3619F450E8F52A02C0B9
:10064000983649F4F20123FD959123FF91912F01F2
:10065000992309F0B8CF892F8554833018F0805240
:10066000833038F444E050E0A40EB51E5FE35983B4
:100670000FC0933631F0933779F0933509F056C0B7
:1006800020C0F5018081898342E050E0A40EB51EB0
:10069000610101E010E012C0F501C080D180F6FCDC
:1006A00003C06FEF7FEF02C0692D70E042E050E0C1
:1006B000A40EB51EC6010E9496048C015FE7F522C8
:1006C00014C0F501C080D180F6FC03C06FEF7FEF4E
:1006D00002C0692D70E042E050E0A40EB51EC601D4
:1006E0000E948B048C0150E8F52AF3FE07C01AC063
:1006F00080E290E0B3010E94A104EA948E2D90E084
:1007000008171907A8F30EC0F601F7FC8591F7FE4C
:1007100081916F0190E0B3010E94A104E110EA947D
:10072000015010400115110579F7EAC0943611F017
:10073000993669F5F7FE08C0F501208131814281C3
:10074000538184E090E00AC0F501808191819C0191
:10075000442737FD4095542F82E090E0A80EB91E43
:100760009FE6F92257FF09C0509540953095219595
:100770003F4F4F4F5F4FE0E8FE2ACA01B901A10188
:100780002AE030E00E94CD04D82ED21840C0953720
:1007900029F41F2D1F7E2AE030E01DC01F2D197F78
:1007A0009F3661F0903720F4983509F0ACC00FC047
:1007B000903739F0983709F0A6C004C028E030E03F
:1007C0000AC0106114FD146020E130E004C014FD83
:1007D000166020E132E017FF08C0F50160817181E9
:1007E0008281938144E050E008C0F50180819181CD
:1007F000BC0180E090E042E050E0A40EB51EA101F3
:100800000E94CD04D82ED2188FE7F82EF122F6FEE2
:100810000BC05EEFF522D91438F4F4FE07C0F2FCE9
:1008200005C08FEEF82202C01D2D01C0192DF4FE67
:100830000DC0FE01ED0DF11D8081803319F499EE9C
:10084000F92208C01F5FF2FE05C003C08F2D867815
:1008500009F01F5F0F2DF3FC14C0F0FE0FC01E1532
:1008600010F09D2C0BC09D2C9E0C911A1E2D06C0C5
:1008700080E290E0B3010E94A1041F5F1E15C0F347
:1008800004C01E1510F4E11A01C0EE2404FF0FC0CD
:1008900080E390E0B3010E94A10402FF1DC001FDAE
:1008A00003C088E790E00EC088E590E00BC0802F81
:1008B000867891F001FF02C08BE201C080E2F7FC74
:1008C0008DE290E0B3010E94A10406C080E390E0B5
:1008D000B3010E94A1049A94D914C0F3DA94F101EF
:1008E000ED0DF11D808190E0B3010E94A104DD2097
:1008F000A9F706C080E290E0B3010E94A104EA9447
:10090000EE20C1F743CEF30166817781CB012B96B0
:10091000E2E10C944705FC01059061507040011024
:10092000D8F7809590958E0F9F1F0895FC01615018
:10093000704001900110D8F7809590958E0F9F1F01
:1009400008950F931F93CF93DF938C01EB018B815D
:1009500081FF1BC082FF0DC02E813F818C819D8154
:100960002817390764F4E881F9810193F983E88352
:1009700006C0E885F985802F0995892B31F48E8191
:100980009F8101969F838E8302C00FEF1FEFC801E6
:10099000DF91CF911F910F910895FA01AA27283076
:1009A00051F1203181F1E8946F936E7F6E5F7F4F3C
:1009B0008F4F9F4FAF4FB1E03ED0B4E03CD0670FB8
:1009C000781F891F9A1FA11D680F791F8A1F911D0B
:1009D000A11D6A0F711D811D911DA11D20D009F45B
:1009E00068943F912AE0269F11243019305D31939D
:1009F000DEF6CF010895462F4770405D4193B3E086
:100A00000FD0C9F7F6CF462F4F70405D4A3318F02C
:100A1000495D31FD4052419302D0A9F7EACFB4E0DD
:100A2000A6959795879577956795BA95C9F7009795
:100A30006105710508959B01AC010A2E0694579536
:100A4000479537952795BA95C9F7620F731F841F8D
:100A5000951FA01D08952F923F924F925F926F9223
:100A60007F928F929F92AF92BF92CF92DF92EF923E
:100A7000FF920F931F93CF93DF93CDB7DEB7CA1BBF
:100A8000DB0B0FB6F894DEBF0FBECDBF09942A88EA
:100A9000398848885F846E847D848C849B84AA8492
:100AA000B984C884DF80EE80FD800C811B81AA811F
:100AB000B981CE0FD11D0FB6F894DEBF0FBECDBFEA
:080AC000ED010895F894FFCF49
:100AC800496E697469616C697A696E6700496E6913
:100AD800742E20446F6E65004C6F676F2E2E2E00AB
:100AE800000000020000000071000000000000008B
:100AF8000000000000007800000000000000000076
:100B0800000000000000F0000000000000000000ED
:100B1800000000000001E0000000000000000000EC
:100B2800000000000001E0000000000000000000DC
:100B3800000000000001F0000000000000000000BC
:100B4800000000000000FB80000000000000000022
:100B5800000000000000FF8000000000000000000E
:100B68000000000000007F8000000000000000007E
:100B780000000000000C3FC0000000000000000062
:100B880000000000001C3FC0000000000000000042
:100B980000000000003C7FC00000000000000000D2
:100BA80000000000003FFF8000000000000000007F
:100BB80000000000003FFF8000000000000000006F
:100BC80000000000003FFF8000000000000000005F
:100BD80000000000003FFF000000000000000000CF
:100BE80000000000003FFE000000000000000000C0
:100BF80000000000003FFC000000000000000000B2
:100C080000000000003FE0000000000000000000BD
:100C180000000000003E000000000000000000008E
:100C280000000000003C0000000000000000000080
:100C38000000000000380000000000000000000074
:100C48000000000000300F0000000000000000005D
:100C5800000000000E201F0000000000000000003F
:100C6800000000001E003F0000000000000000001F
:100C7800000000001E003C00000000000000000012
:100C8800000000001E003C000000000000000FE013
:100C98009F01FC099E1E7F70739F000000003FF1BA
:100CA800FF87FE3FDE3DFF78F3FF800000003CF940
:100CB800FFC7DF3FDE79FF78F3FFC00000007879D7
:100CC800C3CF0F3F1CF03C78F3E3C00000007C0169
:100CD800C1E00F3E1FE03C78F3C3C00000003FC1F5
:100CE80081E03F3C1FE03C78F3C1C00000001FF1E9
:100CF80081E3FF3C1FE03C78F3C1C000000007F926
:100D080081E7EF3C1FF03C78F3C1C000000000F918
:100D180081EF073C1EF83C78F3C1C00000007879E9
:100D2800C1EF0F3C1E783C78F3C1C0000000787911
:100D3800E3CF0F3C1E3C3C7CF3C1C00000003FF9F0
:100D4800FFCFFF3C1E3E3C7FF3C1CF0000001FF1E8
:100D5800FF87FF3C1E1E3C3FF3C1C700000007C1D0
:100D68009E03E0000002000E2000000000000001C9
:100D780080000000000000000000000000000001EA
:100D880080000000000000000000000000000003D8
:100D980080000000C00000180000080800000001E2
:100DA80087C303E0E1F0F83E33083E1E000000016F
:100DB80086030301B0E0DC663B08663200000000F1
:100DC80087C303E18040D8633B08603C0000000013
:100DD800878303C18040F8633F08600E000000006D
:100DE80006030301B040D8663708663200000000E9
:100DF80007C3E3E0E040C83E33083E3E0000000081
:100E080007C3E3E0E040883C33083C1E00000000D4
:100E180000000000000000000000000000000000CA
:100E280000000000000000000000000000000000BA
:100E380000000000000000000000000000000000AA
:100E4800000000000000000000000000000000009A
:100E5800000000000000000000000000000000008A
:100E6800000000000000000000000000000000007A
:100E7800000000000000000000000000000000006A
:100E8800000000000000000000000000000000005A
:100E9800000000000000000000000000000000004A
:100EA800000000000000000000000000000000003A
:100EB800000000000000000000000000000000002A
:100EC800000000000000000000000000000000001A
:100ED800000000000000000000000000000000000A
:100EE80000000000000000000000000000000000FA
:100EF80000000000000000000000000000000000EA
:100F080000000000000000000000000000000000D9
:100F180000000000000000000000000000000000C9
:100F280000000000000000000000000000000000B9
:100F380000000000000000000000000000000000A9
:0E0F480000000000000000000000000000009B
:00000001FF
