:100000000C9461000C947E000C947E000C947E0095
:100010000C947E000C947E000C947E000C947E0068
:100020000C947E000C947E000C947E000C947E0058
:100030000C947E000C947E000C947E000C947E0048
:100040000C9479010C947E000C947E000C947E003C
:100050000C947E000C947E000C947E000C947E0028
:100060000C947E000C947E00000000002400270009
:100070002A0000000000250028002B0000000000DE
:1000800023002600290004040404040404040202DA
:100090000202020203030303030301020408102007
:1000A0004080010204081020010204081020000012
:1000B0000007000201000003040600000000000029
:1000C000000011241FBECFEFD8E0DEBFCDBF11E08E
:1000D000A0E0B1E0E0EDF5E002C005900D92AC3497
:1000E000B107D9F711E0ACE4B1E001C01D92A5352C
:1000F000B107E1F70E9472010C94E6020C94000033
:100100008091000161E00E94330208956F927F9216
:100110008F929F92AF92BF92CF92DF92EF92FF9217
:100120000F931F93CF93DF93EC01882777FD809582
:10013000982F28EE33E040E050E00E94A0023B01FF
:100140004C01CE01880F991F5C01CC24B7FCC094F0
:10015000DC2CEE24FF24870114C08091000161E0B3
:100160000E945302CE010E94EB018091000160E0E9
:100170000E945302CE010E94EB01EA0CFB1C0C1DF5
:100180001D1DE614F704080519053CF3DF91CF9116
:100190001F910F91FF90EF90DF90CF90BF90AF90A5
:1001A0009F908F907F906F9008959F92AF92BF9293
:1001B000CF92DF92EF92FF920F931F93DF93CF9333
:1001C000CDB7DEB768970FB6F894DEBF0FBECDBFD0
:1001D000982E5B01DE011196E4E4F1E088E00190E5
:1001E0000D928150E1F7DE011996E4E3F1E080E140
:1001F00001900D928150E1F77E010894E11CF11C01
:100200008E01075F1F4F6801F7018081891531F466
:10021000F80180819181B5010E9486000894E11C5B
:10022000F11C0E5F1F4FEC14FD0471F768960FB6BA
:10023000F894DEBF0FBECDBFCF91DF911F910F911C
:10024000FF90EF90DF90CF90BF90AF909F90089578
:100250000F931F93CF93DF9304E111E0C0E0D0E050
:1002600035C0FE01EC5FFE4F80814091320150911C
:100270003301F80120813181803271F4429FB00155
:10028000439F700D529F700D1124882777FD809534
:10029000982F0E94C10109C0429FB001439F700D79
:1002A000529F700D11240E94D500809132019091CF
:1002B000330162E070E00E94BF02882777FD8095DD
:1002C000982F0E94C10121960E5F1F4F809102015D
:1002D00090910301C817D90724F2DF91CF911F91A4
:1002E0000F9108950E94F9010E9480000E94280148
:1002F000FDCF1F920F920FB60F9211242F933F93B1
:100300008F939F93AF93BF93809150019091510130
:10031000A0915201B0915301309154010196A11D59
:10032000B11D232F2D5F2D3720F02D570196A11DD4
:10033000B11D209354018093500190935101A093DB
:100340005201B093530180914C0190914D01A091C5
:100350004E01B0914F010196A11DB11D80934C013A
:1003600090934D01A0934E01B0934F01BF91AF9177
:100370009F918F913F912F910F900FBE0F901F90E3
:100380001895EF92FF920F931F937B018C018FB70B
:10039000F894409150015091510160915201709137
:1003A00053018FBF2FB7F894809150019091510164
:1003B000A0915201B09153012FBF841B950BA60B46
:1003C000B70BE816F9060A071B0760F71F910F9194
:1003D000FF90EF900895019759F0FC01EE0FFF1F79
:1003E000EE0FFF1F32978FB7F8943197F1F78FBF59
:1003F0000895789484B5826084BD84B5816084BD9D
:1004000085B5826085BD85B5816085BDEEE6F0E08D
:10041000808181608083E1E8F0E080818260808378
:10042000808181608083E0E8F0E08081816080836A
:10043000E1EBF0E0808184608083E0EBF0E080819C
:1004400081608083EAE7F0E080818460808380813E
:1004500082608083808181608083808180688083E6
:100460001092C1000895282F30E0C90186569F4F91
:10047000FC0194912A573F4FF9018491882391F010
:10048000E82FF0E0EE0FFF1FE859FF4FA591B49160
:10049000662329F48C91909589238C9308958C91EF
:1004A000892B8C930895482F50E0CA0182559F4FA5
:1004B000FC012491CA0186569F4FFC0194914A5732
:1004C0005F4FFA0134913323D1F1222331F12330EC
:1004D00021F4809180008F7705C0243031F4809121
:1004E00080008F7D8093800018C0213019F484B57E
:1004F0008F7704C0223021F484B58F7D84BD0DC078
:10050000263021F48091B0008F7705C0273029F480
:100510008091B0008F7D8093B000E32FF0E0EE0F6C
:10052000FF1FEE58FF4FA591B491662329F48C91DB
:10053000909589238C9308958C91892B8C930895A1
:10054000629FD001739FF001829FE00DF11D649FB7
:10055000E00DF11D929FF00D839FF00D749FF00D43
:10056000659FF00D9927729FB00DE11DF91F639FE4
:10057000B00DE11DF91FBD01CF011124089597FBB6
:10058000092E07260AD077FD04D00CD006D0002013
:100590001AF4709561957F4F0895F6F790958195BF
:1005A0009F4F0895AA1BBB1B51E107C0AA1FBB1F89
:1005B000A617B70710F0A61BB70B881F991F5A95EF
:1005C000A9F780959095BC01CD010895F894FFCFCF
:1005D0000C000F0063636767616167666665656449
:1005E000646320000100010001000100010001001E
:1005F00002000100010001000100010001000200F1
:1006000004002C017B07A406EF059805FB04700489
:0C061000F603BC03636465666761624327
:00000001FF
