:100000000C9462000C948A000C948A000C948A0070
:100010000C948A000C948A000C948A000C948A0038
:100020000C948A000C948A000C948A000C948A0028
:100030000C948A000C948A000C948A000C948A0018
:100040000C94A5010C948A000C948A000C948A00EC
:100050000C948A000C948A000C948A000C948A00F8
:100060000C948A000C948A000000000024002700F1
:100070002A0000000000250028002B0000000000DE
:1000800023002600290004040404040404040202DA
:100090000202020203030303030301020408102007
:1000A0004080010204081020010204081020000012
:1000B0000007000201000003040600000000000029
:1000C00000004C0111241FBECFEFD8E0DEBFCDBF32
:1000D00011E0A0E0B1E0E0EBF7E002C005900D9286
:1000E000A230B107D9F711E0A2E0B1E001C01D9242
:1000F000A431B107E1F710E0C4ECD0E004C02297CE
:10010000FE010E94D203C23CD107C9F70E949E01A2
:100110000C94D6030C940000FC0110828FEF8183B5
:100120000895EF92FF920F931F93CF93DF93EC010B
:100130009B0177FF03C020E030E005C0653B7105FF
:1001400014F024EB30E02983EA806B8170E06E19B3
:100150007109882777FD8095982F982F872F762F04
:10016000662730E040E050E00E944D0324EB30E091
:1001700040E050E00E947F03FF2400E010E0102FD9
:100180000F2DFE2CEE24E20EF31E041F151FC801D6
:10019000B70128E030E040E050E00E947F03888112
:1001A000893029F4309389002093880006C08A3072
:1001B00021F430938B0020938A00DF91CF911F911F
:1001C0000F91FF90EF900895CF93DF93EC01FB0127
:1001D000CB010997029710F080E054C0CA0160E19A
:1001E00070E00E946C036A83C90160E170E00E94C4
:1001F0006C036B83E8838FEF89838E2F60E00E940E
:10020000B702888161E00E949702809102018823F1
:1002100011F5809103018823F1F42FB7F89482E05F
:10022000809380008AE18093810088EB9BE090932B
:1002300089008093880090938B0080938A0080E4EB
:100240009CE9909387008093860080916F00887F5F
:1002500080936F002FBF8881893041F481E08093C3
:100260000201809180008F73806809C08A3049F450
:1002700081E080930301809180008F7C8062809375
:10028000800081E0DF91CF91089540E252E020E6C6
:1002900039E00E94E400089584E091E00E948C001F
:1002A0000895AF92BF92CF92DF92EF92FF920F9399
:1002B0001F9381E00E94790200D000D0AA2797FD09
:1002C000A095BA2F23EB30E040E050E0EDB7FEB749
:1002D0002183328343835483BC01CD0120E030E08D
:1002E00040E050E0EFEFEE2EE3E0FE2E012D112D69
:1002F000AA24BB2465010E9404039B01AC010F905A
:100300000F900F900F9084E091E0B9010E9491004E
:100310006FE070E080E090E00E9415021F910F9165
:10032000FF90EF90DF90CF90BF90AF90089584E062
:1003300091E06AE070E00E94450108950E943F024A
:100340000E9497010E945101FDCF1F920F920FB69C
:100350000F9211242F938F939F93AF93BF9380910C
:10036000080190910901A0910A01B0910B01019639
:10037000A11DB11D8093080190930901A0930A016A
:10038000B0930B0180910C0190910D01A0910E0191
:10039000B0910F018050904CAF4FBF4F80930C0134
:1003A00090930D01A0930E01B0930F0127C080918F
:1003B0000C0190910D01A0910E01B0910F01805898
:1003C0009E43A040B04080930C0190930D01A093F8
:1003D0000E01B0930F018091100190911101A09135
:1003E0001201B09113010196A11DB11D809310015E
:1003F00090931101A0931201B093130180910C010D
:1004000090910D01A0910E01B0910F0181589E4372
:10041000A040B04060F6BF91AF919F918F912F9116
:100420000F900FBE0F901F901895EF92FF920F93B1
:100430001F937B018C018FB7F8944091100150916C
:10044000110160911201709113018FBF2FB7F894C1
:100450008091100190911101A0911201B0911301AE
:100460002FBF841B950BA60BB70BE816F9060A07DE
:100470001B0760F71F910F91FF90EF9008957894FC
:1004800084B5826084BD84B5816084BD85B5826099
:1004900085BD85B5816085BDEEE6F0E08081816037
:1004A0008083E1E8F0E080818260808380818160E8
:1004B0008083E0E8F0E0808181608083E1EBF0E020
:1004C000808184608083E0EBF0E0808181608083C4
:1004D000EAE7F0E0808184608083808182608083AD
:1004E0008081816080838081806880831092C100D8
:1004F00008958770909100019295990F990F907CC3
:10050000982B90937C0080917A00806480937A008D
:1005100080917A0086FDFCCF20917800409179008F
:10052000942F80E030E0282B392BC9010895282F23
:1005300030E0C90186569F4FFC0194912A573F4FE6
:10054000F9018491882391F0E82FF0E0EE0FFF1F6E
:10055000E859FF4FA591B491662329F48C919095A9
:1005600089238C9308958C91892B8C930895482F1F
:1005700050E0CA0182559F4FFC012491CA01865662
:100580009F4FFC0194914A575F4FFA0134913323F6
:10059000D1F1222331F1233021F4809180008F7733
:1005A00005C0243031F4809180008F7D80938000DD
:1005B00018C0213019F484B58F7704C0223021F49B
:1005C00084B58F7D84BD0DC0263021F48091B000AC
:1005D0008F7705C0273029F48091B0008F7D8093FC
:1005E000B000E32FF0E0EE0FFF1FEE58FF4FA59194
:1005F000B491662329F48C91909589238C93089566
:100600008C91892B8C9308952F923F924F925F92F9
:100610006F927F928F929F92AF92BF92CF92DF9212
:10062000EF92FF920F931F93DF93CF93CDB7DEB777
:100630003B014C0119012A016D897E898F89988DB2
:100640006A197B098C099D09621A730A840A950A42
:10065000A40193010E944D03E218F308040915094F
:10066000A80197010E947F032A0D3B1D4C1D5D1DB3
:10067000B901CA01CF91DF911F910F91FF90EF90C7
:10068000DF90CF90BF90AF909F908F907F906F90B2
:100690005F904F903F902F900895629FD001739F7D
:1006A000F001829FE00DF11D649FE00DF11D929F0E
:1006B000F00D839FF00D749FF00D659FF00D99274D
:1006C000729FB00DE11DF91F639FB00DE11DF91F71
:1006D000BD01CF011124089597FB092E07260AD0EA
:1006E00077FD04D027D006D000201AF470956195CC
:1006F0007F4F0895F6F7909581959F4F089597FB4A
:10070000092E05260ED057FD04D028D00AD0001C93
:1007100038F450954095309521953F4F4F4F5F4F9E
:100720000895F6F790958095709561957F4F8F4F5E
:100730009F4F0895AA1BBB1B51E107C0AA1FBB1FF7
:10074000A617B70710F0A61BB70B881F991F5A955D
:10075000A9F780959095BC01CD010895A1E21A2ECC
:10076000AA1BBB1BFD010DC0AA1FBB1FEE1FFF1F55
:10077000A217B307E407F50720F0A21BB30BE40BA5
:10078000F50B661F771F881F991F1A9469F76095EC
:100790007095809590959B01AC01BD01CF010895A6
:1007A000EE0FFF1F0590F491E02D0994F894FFCF10
:0207B000010046
:00000001FF
